:100000000C9470340C948D340C948D340C948D3489
:100010000C948D340C948D340C948D340C948D345C
:100020000C948D340C9463350C948D340C948D3475
:100030000C948D340C948D340C948D340C948D343C
:100040000C94FC350C948D340C948D340C941A362D
:100050000C948D340C948D340C948D340C948D341C
:100060000C940B360C948D340C948D340C948D348C
:100070000C948D340C948D340C948D348C37D6378D
:1000800025388438A738F33827394A39A8390A3A45
:10009000313ACE3A3A3B493B6C3B91439E43AC43A9
:1000A000C643E84311444B4478449444BC44C84498
:1000B000F644FE4409452C4562467A468A469446F3
:1000C000984666467E46A446A846B546B946C34607
:1000D000D347334835483B483F484248454847485E
:1000E00098B0C6D9E9F4FCFEFCF4E9D9C6B0987F13
:1000F000664E3825150A0200020A1525384E667F1D
:1001000098B0C6D9E9F4FCFEFCF4E9D9C6B0987FF2
:10011000664E3825150A0200020A1525384E667FFC
:10012000664E3825150A0200020A1525384E667FEC
:1001300098B0C6D9E9F4FCFEFCF4E9D9C6B0987FC2
:10014000664E3825150A0200020A1525384E667FCC
:1001500098B0C6D9E9F4FCFEFCF4E9D9C6B0987FA2
:100160008EA1B6CCE0F0FAFEFAF0E0CCB6A18E7F1C
:1001700075706F72767B7E7F7E7B76726F70757F17
:100180008EA1B6CCE0F0FAFEFAF0E0CCB6A18E7FFC
:1001900075706F72767B7E7F7E7B76726F70757FF7
:1001A000705D48321E0E0400040E1E32485D707FE2
:1001B000898E8F8C8883807F8083888C8F8E897FC7
:1001C000705D48321E0E0400040E1E32485D707FC2
:1001D000898E8F8C8883807F8083888C8F8E897FA7
:1001E0008998ABC1D8ECF9FEF9ECD8C1AB98897FFE
:1001F00078736D67615B5655565B61676D73787F89
:100200008998ABC1D8ECF9FEF9ECD8C1AB98897FDD
:1002100078736D67615B5655565B61676D73787F68
:100220007566533D261205000512263D5366757FFF
:10023000868B91979DA3A8A9A8A39D97918B867F54
:100240007566533D261205000512263D5366757FDF
:10025000868B91979DA3A8A9A8A39D97918B867F34
:100260008792A3B8D1E8F8FEF8E8D1B8A392877FC7
:100270007A767575777B7E7F7E7B777575767A7FEC
:100280008792A3B8D1E8F8FEF8E8D1B8A392877FA7
:100290007A767575777B7E7F7E7B777575767A7FCC
:1002A000776C5B462D16060006162D465B6C777F35
:1002B000848889898783807F808387898988847FF0
:1002C000776C5B462D16060006162D465B6C777F15
:1002D000848889898783807F808387898988847FD0
:1002E000858F9DB1CBE4F7FEF7E4CBB19D8F857F81
:1002F0007B7875736F6B6766676B6F7375787B7FE1
:10030000858F9DB1CBE4F7FEF7E4CBB19D8F857F60
:100310007B7875736F6B6766676B6F7375787B7FC0
:10032000796F614D331A0700071A334D616F797F7A
:100330008386898B8F93979897938F8B8986837FFA
:10034000796F614D331A0700071A334D616F797F5A
:100350008386898B8F93979897938F8B8986837FDA
:10036000848C99ACC5E0F6FEF6E0C5AC998C847F30
:100370007C797877797B7E7F7E7B797778797C7FD3
:10038000848C99ACC5E0F6FEF6E0C5AC998C847F10
:100390007C797877797B7E7F7E7B797778797C7FB3
:1003A0007A726552391E0800081E395265727A7FCA
:1003B000828586878583807F808385878685827F07
:1003C0007A726552391E0800081E395265727A7FAA
:1003D000828586878583807F808385878685827FE7
:1003E000838A95A7C0DDF5FEF5DDC0A7958A837FDA
:1003F0007C7A787775716E6D6E717577787A7C7F9F
:10040000838A95A7C0DDF5FEF5DDC0A7958A837FB9
:100410007C7A787774716E6D6E717477787A7C7F80
:100420007B7469573E21090009213E5769747B7F1F
:1004300082848687898D9091908D89878684827F3A
:100440007B7469573E21090009213E5769747B7FFF
:10045000828486878A8D9091908D8A878684827F18
:10046000838993A3BBD9F4FEF3D9BBA39389837F7C
:100470007C7B7979797B7E7F7E7B7979797B7C7FC8
:10048000838993A3BBD9F3FEF3D9BBA39389837F5D
:100490007C7B7979797B7E7F7E7B7979797B7D7FA7
:1004A0007B756B5B43250A000B25435B6B757B7F7C
:1004B000828385858583807F808385858583827F10
:1004C0007B756B5B43250B000B25435B6B757B7F5B
:1004D000828385858583807F808385858583817FF1
:1004E000818891A0B7D6F2FEF2D6B7A09188827F1C
:1004F0007D7B7A7977757271727577797A7B7D7F7A
:10050000828891A0B7D6F2FEF2D6B7A09188827FFA
:100510007D7B7A7977757271727577797A7B7E7F58
:100520007D766D5E47280C000C28475E6D767C7FDB
:100530008183848587898C8D8C8987858483817F5D
:100540007C766D5E47280C000C28475E6D767C7FBC
:100550008183848587898C8D8C8987858483807F3E
:1005600081868F9DB4D3F1FEF1D3B49D8F87827FB6
:100570007D7B7A7A7A7C7E7F7E7C7A7A7A7B7D7FBD
:1005800082878F9DB4D3F1FEF1D3B49D8F87827F94
:100590007D7B7A7A7A7C7E7F7E7C7A7A7B7C7E7F9A
:1005A0007D786F614A2B0D000D2B4A616F777C7F40
:1005B000818384848482807F808284848483817F19
:1005C0007C776F614A2B0D000D2B4A616F777C7F22
:1005D000818384848482807F808284848382807FFC
:1005E00080848C9AB1D1F0FEF0D0B09A8D86827F53
:1005F0007D7C7B7A797775737577797A7B7C7D7F63
:1006000082868D9AB0D0F0FEF0D0B09A8D86827F2F
:100610007D7C7B7A797775737477797B7C7D7E7F3F
:100620007E7A72644D2D0E000E2E4E6471787C7FA2
:10063000818283848587898B898785848382817F72
:100640007C7871644E2E0E000E2E4E6471787C7F85
:10065000818283848587898B8A8785838281807F55
:1006600080828996ACCDEFFEEFCEAE988C86827FED
:100670007D7C7B7B7B7C7E7F7E7C7B7B7B7C7D7FB4
:1006800082868C98ADCDEFFDEFCDAD988C86827FC4
:100690007D7C7B7B7A7B7D7F7E7D7C7C7D7E7F7F8E
:1006A0007E7C756852310F000F30506672787C7F07
:1006B000818283838382807F808283838382817F20
:1006C0007C78726651310F010F31516672787C7FF0
:1006D000818283838483817F8081828281807F7F06
:1006E0007F818792A7C9EDFEEECCAB978C85817F89
:1006F0007D7C7B7B7A79767576797A7B7B7C7D7F56
:1007000081858B96ABCBEEFEEECBAB978B85817F55
:100710007D7C7B7B7A797776787A7C7D7E7E7F7F25
:100720007F7D776C573511001032536772797D7F6A
:100730008182838384858889888584838382817F7D
:100740007D797368533310001033536773797D7F5D
:1007500081828383848587888684828180807F7F6D
:100760007F81848EA2C3E8FBEBC8A8958B85817F2F
:100770007D7C7B7B7B7B7D7E7D7C7B7B7C7C7E7FB5
:1007800081858A95A9C9EDFEEDC9A9958B85817FE3
:100790007D7C7C7C7C7D7F81807E7E7E7E7F7F7F7A
:1007A0007F7D7A705C3B16031336566973797D7FC3
:1007B0008182838383838180818283838282807F1D
:1007C0007D797469553511001135556973797D7FCF
:1007D0008182828282817F7D7E808080807F7F7F18
:1007E0007F80838A9CBCE2F5E5C2A3918884817FE7
:1007F0007E7D7C7C7B79777677787A7A7B7C7D7F4F
:1008000081858B95A7C7ECFEECC7A7948A84817F6E
:100810007E7D7D7D7D7C7A7A7B7D7E7E7F7F7F7F06
:100820007F7E7B7462421C09193C5B6D767A7D7F0A
:100830008081828283858788878684848382817F82
:100840007D797369573712001237576A747A7D7F42
:100850008081818181828484838180807F7F7F7F8A
:100860007F80828897B6DCF0E0BC9F8F8783817F92
:100870007E7D7C7B7B7C7D7E7E7C7B7B7C7C7D7FB0
:1008800081858A94A6C6ECFEEBC5A5928984817FFA
:100890007E7D7D7C7C7D7F80807E7E7E7E7F7F7F77
:1008A0007F7E7C766748220E1E425F6F777B7D7F5E
:1008B0008081828383828180808283838282817F20
:1008C0007D79746A583812001339596C757A7D7FB6
:1008D0008081818282817F7E7E808080807F7F7F19
:1008E000FFFCFCFCFBFCFCFCFCFBFCFCFCFCFBFC48
:1008F000FCFCFCFBFCFCFCFCFCFCFCFCFCFCFCFC39
:10090000FCFCFCFCFCFCFCFCFCFCFCFCFCFCFCFC27
:10091000FCFCFCFCFCFCFCFCFCFCFCFCFCFCFCFC17
:10092000FCFCFCFCFCFCFCFCFCFCFCFCFCFCFCFC07
:10093000FCFCFCFCFCFCFCFCFCFCFCFCFCFCFCFCF7
:10094000FCFCFCFCFCFCFCFCFCFCFCFBFCFCFCFCE8
:10095000FBFCFCFCFCFBFCFCFCFCFBFCFCFCFF8053
:100960000003030304030303030403030303040357
:100970000303030403030303030303030303030346
:100980000303030303030303030303030303030337
:100990000303030303030303030303030303030327
:1009A0000303030303030303030303030303030317
:1009B0000303030303030303030303030303030307
:1009C00003030303030303030303030403030303F6
:1009D0000403030303040303030304030303007F6B
:1009E000FCFEFFFFFFFFFFFFFFFFFFFEFEFEFFFF1E
:1009F000FFFFFFFFFFFFFFFFFFFFFFFFFFFFFFFF07
:100A0000FFFFFFFFFFFFFFFFFFFFFFFFFFFFFFFFF6
:100A1000FFFFFFFFFFFFFFFFFFFFFFFFFFFFFFFFE6
:100A2000FFFFFFFFFFFFFFFFFFFFFFFFFFFFFFFFD6
:100A3000FFFFFFFFFFFFFFFFFFFFFFFFFFFFFFFFC6
:100A4000FFFFFFFFFFFFFFFFFFFFFFFFFFFFFFFFB6
:100A5000FFFEFEFEFFFFFFFFFFFFFFFFFFFEFC802C
:100A6000030100000000000000000001010100007F
:100A70000000000000000000000000000000000076
:100A80000000000000000000000000000000000066
:100A90000000000000000000000000000000000056
:100AA0000000000000000000000000000000000046
:100AB0000000000000000000000000000000000036
:100AC0000000000000000000000000000000000026
:100AD0000001010100000000000000000001037F90
:100AE000FCFEFEFFFFFFFFFFFFFFFFFFFFFFFFFF1B
:100AF000FFFFFFFFFFFFFFFFFFFFFFFFFFFFFFFF06
:100B0000FFFFFFFFFFFFFFFFFFFFFFFFFFFFFFFFF5
:100B1000FFFFFFFFFFFFFFFFFFFFFFFFFFFFFFFFE5
:100B2000FFFFFFFFFFFFFFFFFFFFFFFFFFFFFFFFD5
:100B3000FFFFFFFFFFFFFFFFFFFFFFFFFFFFFFFFC5
:100B4000FFFFFFFFFFFFFFFFFFFFFFFFFFFFFFFFB5
:100B5000FFFFFFFFFFFFFFFFFFFFFFFFFEFEFC8029
:100B60000301010000000000000000000000000080
:100B70000000000000000000000000000000000075
:100B80000000000000000000000000000000000065
:100B90000000000000000000000000000000000055
:100BA0000000000000000000000000000000000045
:100BB0000000000000000000000000000000000035
:100BC0000000000000000000000000000000000025
:100BD0000000000000000000000000000101037F91
:100BE000FFFDFDFDFDFDFDFDFDFDFDFDFDFDFDFD33
:100BF000FDFDFDFDFDFDFDFDFDFDFDFDFDFDFDFD25
:100C0000FDFDFDFDFDFDFDFDFDFDFDFDFDFDFDFD14
:100C1000FDFDFDFDFDFDFDFDFDFDFDFDFDFDFDFD04
:100C2000FDFDFDFDFDFDFDFDFDFDFDFDFDFDFDFDF4
:100C3000FDFDFDFDFDFDFDFDFDFDFDFDFDFDFDFDE4
:100C4000FDFDFDFDFDFDFDFDFDFDFDFDFDFDFDFDD4
:100C5000FDFDFDFDFDFDFDFDFDFDFDFDFDFDFF803F
:100C60000002020202020202020202020202020266
:100C70000202020202020202020202020202020254
:100C80000202020202020202020202020202020244
:100C90000202020202020202020202020202020234
:100CA0000202020202020202020202020202020224
:100CB0000202020202020202020202020202020214
:100CC0000202020202020202020202020202020204
:100CD0000202020202020202020202020202007F79
:100CE000FFF5F7F7F6F7F6F7F6F7F6F7F7F6F7F694
:100CF000F7F6F7F7F6F7F6F7F6F7F6F7F7F6F7F68B
:100D0000F7F6F7F7F6F7F6F7F6F7F6F7F7F6F7F67A
:100D1000F7F6F7F7F6F7F6F7F6F7F6F7F7F6F7F66A
:100D2000F7F6F7F7F6F7F6F7F6F7F6F7F7F6F7F65A
:100D3000F7F6F7F7F6F7F6F7F6F7F6F7F7F6F7F64A
:100D4000F7F6F7F7F6F7F6F7F6F7F6F7F7F6F7F63A
:100D5000F7F6F7F7F6F7F6F7F6F7F6F7F7F5FF8099
:100D6000000A080809080908090809080809080903
:100D700008090808090809080908090808090809EC
:100D800008090808090809080908090808090809DC
:100D900008090808090809080908090808090809CC
:100DA00008090808090809080908090808090809BC
:100DB00008090808090809080908090808090809AC
:100DC000080908080908090809080908080908099C
:100DD000080908080908090809080908080A007F1D
:100DE000FFFCFCFCFCFCFCFBFBFBFBFBFBFBFBFB49
:100DF000FBFBFBFBFBFBFBFBFBFBFBFBFBFBFBFB43
:100E0000FBFBFBFBFBFBFBFBFBFBFBFBFBFBFBFB32
:100E1000FBFBFBFBFBFBFBFBFBFBFBFBFBFBFBFB22
:100E2000FBFBFBFBFBFBFBFBFBFBFBFBFBFBFBFB12
:100E3000FBFBFBFBFBFBFBFBFBFBFBFBFBFBFBFB02
:100E4000FBFBFBFBFBFBFBFBFBFBFBFBFBFBFBFBF2
:100E5000FBFBFBFBFBFBFBFBFCFCFCFCFCFCFF8053
:100E6000000303030303030404040404040404044C
:100E70000404040404040404040404040404040432
:100E80000404040404040404040404040404040422
:100E90000404040404040404040404040404040412
:100EA0000404040404040404040404040404040402
:100EB00004040404040404040404040404040404F2
:100EC00004040404040404040404040404040404E2
:100ED0000404040404040404030303030303007F61
:100EE000FFF9F9FBFAFAFAF9FAFAF9FAFAFAFAFA60
:100EF000FAFAFAFAFAFAFAFAFAFAFAFAFAFAFAFA52
:100F0000FAFAFAFAFAFAFAFAFAFAFAFAFAFAFAFA41
:100F1000FAFAFAFAFAFAFAFAFAFAFAFAFAFAFAFA31
:100F2000FAFAFAFAFAFAFAFAFAFAFAFAFAFAFAFA21
:100F3000FAFAFAFAFAFAFAFAFAFAFAFAFAFAFAFA11
:100F4000FAFAFAFAFAFAFAFAFAFAFAFAFAFAFAFA01
:100F5000FAFAFAFAF9FAFAF9FAFAFAFBF9F9FF8069
:100F60000006060405050506050506050505050533
:100F70000505050505050505050505050505050521
:100F80000505050505050505050505050505050511
:100F90000505050505050505050505050505050501
:100FA00005050505050505050505050505050505F1
:100FB00005050505050505050505050505050505E1
:100FC00005050505050505050505050505050505D1
:100FD0000505050506050506050505040606007F49
:100FE000FCFFF8FAFCFAFAFCFBFAFBFBFAFBFBFA53
:100FF000FAFBFAFAFBFBFAFBFBFAFAFBFAFAFBFA4A
:10100000FAFBFBFAFAFBFAFAFBFAFAFBFBFAFBFB38
:10101000FAFAFBFAFAFBFAFAFBFBFAFAFBFAFAFB2A
:10102000FAFAFBFAFAFBFBFAFAFBFAFAFBFAFAFB1A
:10103000FBFAFBFBFAFAFBFAFAFBFAFAFBFBFAFA09
:10104000FBFAFAFBFAFAFBFBFAFBFBFAFAFBFAFAF9
:10105000FBFBFAFBFBFAFBFCFAFAFCFAF8FFFC805C
:10106000030007050305050304050404050404053E
:101070000504050504040504040505040505040527
:101080000504040505040505040505040405040418
:101090000505040505040505040405050405050406
:1010A00005050405050404050504050504050504F6
:1010B00004050404050504050504050504040505E7
:1010C00004050504050504040504040505040505D7
:1010D0000404050404050403050503050700037F54
:1010E000F2FBFCFDFEFEFEFFFFFFFFFFFFFFFFFF29
:1010F000FFFFFFFFFFFFFEFEFEFEFEFEFEFEFEFE0A
:10110000FEFEFEFEFEFEFEFEFEFFFFFFFFFFFFFFF8
:10111000FFFFFFFFFFFEFEFEFEFEFEFEFEFEFEFEEA
:10112000FEFEFEFEFEFEFEFEFEFEFFFFFFFFFFFFD9
:10113000FFFFFFFFFFFFFEFEFEFEFEFEFEFEFEFEC9
:10114000FEFEFEFEFEFEFEFEFEFFFFFFFFFFFFFFB8
:10115000FFFFFFFFFFFFFFFFFEFEFEFDFCFBF28037
:101160000D04030201010100000000000000000066
:101170000000000000000101010101010101010165
:101180000101010101010101010000000000000056
:101190000000000000010101010101010101010144
:1011A0000101010101010101010100000000000035
:1011B0000000000000000101010101010101010125
:1011C0000101010101010101010000000000000016
:1011D00000000000000000000101010203040D7F77
:1011E000F4FEFFFEFEFDFEFEFEFEFEFEFEFEFEFE29
:1011F000FEFEFEFEFEFEFEFEFEFEFEFEFEFEFEFE0F
:10120000FEFEFEFEFEFEFEFEFEFEFEFEFEFEFEFEFE
:10121000FEFEFEFEFEFEFEFEFEFEFEFEFEFEFEFEEE
:10122000FEFEFEFEFEFEFEFEFEFEFEFEFEFEFEFEDE
:10123000FEFEFEFEFEFEFEFEFEFEFEFEFEFEFEFECE
:10124000FEFEFEFEFEFEFEFEFEFEFEFEFEFEFEFEBE
:10125000FEFEFEFEFEFEFEFEFEFDFEFEFFFEF48036
:101260000B01000101020101010101010101010164
:10127000010101010101010101010101010101015E
:10128000010101010101010101010101010101014E
:10129000010101010101010101010101010101013E
:1012A000010101010101010101010101010101012E
:1012B000010101010101010101010101010101011E
:1012C000010101010101010101010101010101010E
:1012D00001010101010101010102010100010B7F76
:1012E000F6FFFFFFFFFFFFFFFFFFFFFFFFFFFFFF17
:1012F000FFFFFFFFFFFFFFFFFFFFFFFFFFFFFFFFFE
:10130000FFFFFFFFFFFFFFFFFFFFFFFFFFFFFFFFED
:10131000FFFFFFFFFFFFFFFFFFFFFFFFFFFFFFFFDD
:10132000FFFFFFFFFFFFFFFFFFFFFFFFFFFFFFFFCD
:10133000FFFFFFFFFFFFFFFFFFFFFFFFFFFFFFFFBD
:10134000FFFFFFFFFFFFFFFFFFFFFFFFFFFFFFFFAD
:10135000FFFFFFFFFFFFFFFFFFFFFFFFFFFFF68025
:101360000900000000000000000000000000000074
:10137000000000000000000000000000000000006D
:10138000000000000000000000000000000000005D
:10139000000000000000000000000000000000004D
:1013A000000000000000000000000000000000003D
:1013B000000000000000000000000000000000002D
:1013C000000000000000000000000000000000001D
:1013D0000000000000000000000000000000097F85
:1013E000F6FEFFFEFFFEFFFEFEFEFEFEFEFEFEFE22
:1013F000FEFEFEFEFEFEFEFEFEFEFEFEFEFEFEFE0D
:10140000FEFEFEFEFEFEFEFEFEFEFEFEFEFEFEFEFC
:10141000FEFEFEFEFEFEFEFEFEFEFEFEFEFEFEFEEC
:10142000FEFEFEFEFEFEFEFEFEFEFEFEFEFEFEFEDC
:10143000FEFEFEFEFEFEFEFEFEFEFEFEFEFEFEFECC
:10144000FEFEFEFEFEFEFEFEFEFEFEFEFEFEFEFEBC
:10145000FEFEFEFEFEFEFEFEFFFEFFFEFFFEF6802F
:101460000901000100010001010101010101010167
:10147000010101010101010101010101010101015C
:10148000010101010101010101010101010101014C
:10149000010101010101010101010101010101013C
:1014A000010101010101010101010101010101012C
:1014B000010101010101010101010101010101011C
:1014C000010101010101010101010101010101010C
:1014D0000101010101010101000100010001097F79
:1014E000F4FFFCFFFBFEFCFDFDFCFEFCFEFDFDFE33
:1014F000FDFEFDFDFDFDFDFDFDFDFDFDFDFDFDFD1B
:10150000FDFDFDFDFDFDFDFDFDFDFDFDFDFDFDFD0B
:10151000FDFDFDFDFDFDFDFDFDFDFDFDFDFDFDFDFB
:10152000FDFDFDFDFDFDFDFDFDFDFDFDFDFDFDFDEB
:10153000FDFDFDFDFDFDFDFDFDFDFDFDFDFDFDFDDB
:10154000FDFDFDFDFDFDFDFDFDFDFDFDFDFEFDFEC9
:10155000FDFDFEFCFEFCFDFDFCFEFBFFFCFFF48040
:101560000B00030004010302020301030102020154
:10157000020102020202020202020202020202024C
:10158000020202020202020202020202020202023B
:10159000020202020202020202020202020202022B
:1015A000020202020202020202020202020202021B
:1015B000020202020202020202020202020202020B
:1015C00002020202020202020202020202010201FD
:1015D00002020103010302020301040003000B7F66
:1015E000E9FFF2F7FAF4F7F9F5F7F8F5F7F8F6F797
:1015F000F8F6F7F8F6F7F8F6F7F8F6F7F7F6F6F77D
:10160000F7F6F7F7F6F7F7F6F7F7F6F7F7F6F7F76F
:10161000F6F7F7F6F7F7F6F7F7F6F7F7F6F7F7F660
:10162000F7F7F6F7F7F6F7F7F6F7F7F6F7F7F6F74F
:10163000F7F6F7F7F6F7F7F6F7F7F6F7F7F6F7F73F
:10164000F6F6F7F7F6F8F7F6F8F7F6F8F7F6F8F72C
:10165000F6F8F7F5F8F7F5F9F7F4FAF7F2FFE9809D
:1016600016000D08050B08060A08070A08070908EE
:1016700007090807090807090807090808090908E8
:1016800008090808090808090808090808090808D5
:1016900009080809080809080809080809080809C4
:1016A00008080908080908080908080908080908B5
:1016B00008090808090808090808090808090808A5
:1016C0000909080809070809070809070809070898
:1016D0000907080A07080A06080B05080D00167F07
:1016E000DBFFF5EBF3F7F2EFF3F5F1F0F4F4F1F1E2
:1016F000F4F4F1F1F4F3F1F2F4F3F1F2F3F3F1F2C3
:10170000F3F2F1F3F3F2F2F3F3F2F2F3F3F2F2F3B2
:10171000F3F2F2F3F3F2F2F3F3F2F2F3F2F2F2F3A2
:10172000F2F2F2F3F2F2F3F3F2F2F3F3F2F2F3F392
:10173000F2F2F3F3F2F2F3F3F2F2F3F3F1F2F3F283
:10174000F1F3F3F2F1F3F4F2F1F3F4F1F1F4F4F173
:10175000F1F4F4F0F1F5F3EFF2F7F3EBF5FFDB80E2
:1017600024000A140C080D100C0A0E0F0B0B0E0EA1
:101770000B0B0E0E0B0C0E0D0B0C0E0D0C0C0E0DA0
:101780000C0D0E0C0C0D0D0C0C0D0D0C0C0D0D0C90
:101790000C0D0D0C0C0D0D0C0C0D0D0C0D0D0D0C80
:1017A0000D0D0D0C0D0D0C0C0D0D0C0C0D0D0C0C70
:1017B0000D0D0C0C0D0D0C0C0D0D0C0C0E0D0C0D5F
:1017C0000E0C0C0D0E0C0B0D0E0C0B0E0E0B0B0E4F
:1017D0000E0B0B0F0E0A0C100D080C140A00247FC0
:1017E000CEFBFFF1E9EFF7F6F0EDF1F5F4F0EFF2F3
:1017F000F4F3F0F0F2F4F3F0F0F2F3F2F0F0F2F3CD
:10180000F2F1F1F2F3F2F1F1F2F3F2F1F1F2F3F2BB
:10181000F1F1F2F3F2F1F1F2F3F1F1F1F3F3F1F1AD
:10182000F1F3F3F1F1F1F3F2F1F1F2F3F2F1F1F29C
:10183000F3F2F1F1F2F3F2F1F1F2F3F2F1F1F2F38A
:10184000F2F0F0F2F3F2F0F0F3F4F2F0F0F3F4F27D
:10185000EFF0F4F5F1EDF0F6F7EFE9F1FFFBCE80F4
:101860003104000E161008090F120E0A0B0F100D8E
:101870000B0C0F0F0D0B0C0F0F0D0C0D0F0F0D0C94
:101880000D0E0E0D0C0D0E0E0D0C0D0E0E0D0C0D85
:101890000E0E0D0C0D0E0E0D0C0E0E0E0C0C0E0E73
:1018A0000E0C0C0E0E0E0C0D0E0E0D0C0D0E0E0D64
:1018B0000C0D0E0E0D0C0D0E0E0D0C0D0E0E0D0C56
:1018C0000D0F0F0D0C0D0F0F0C0B0D0F0F0C0B0D43
:1018D000100F0B0A0E120F090810160E0004317FAC
:1018E000C1EEFFF9ECE6E9F0F5F3EDEAEBEFF2F12A
:1018F000EEEBECEFF1F1EEECECEFF1F0EEEDEDEE06
:10190000F0F0EFEDEDEEF0F0EFEDEDEEF0F0EFEDED
:10191000EDEEEFF0EFEEEDEEEFF0EFEEEDEEEFF0DF
:10192000EFEEEDEEEFF0EFEEEDEEEFF0EFEEEDEDD2
:10193000EFF0F0EEEDEDEFF0F0EEEDEDEFF0F0EEBC
:10194000EDEDEEF0F1EFECECEEF1F1EFECEBEEF1B2
:10195000F2EFEBEAEDF3F5F0E9E6ECF9FFEEC1802A
:101960003E1100061319160F0A0C121514100D0E55
:10197000111413100E0E111313100E0F1112121159
:101980000F0F101212110F0F101212110F0F101251
:101990001211100F10111211100F10111211100F3F
:1019A00010111211100F10111211100F101112122C
:1019B000100F0F111212100F0F111212100F0F1122
:1019C0001212110F0E101313110E0E101314110E0C
:1019D0000D101415120C0A0F1619130600113E7F74
:1019E000B6E1F9FFF8EDE5E5EAF0F4F3EFEAE8EA4D
:1019F000EDF1F2F0EDEAEAECEFF0F0EEECEBEBED0E
:101A0000EFF0EFEDECEBECEEF0EFEEECEBECEDEFFE
:101A1000EFEFEDECECEDEEEFEFEEEDECECEDEFEFEC
:101A2000EFEDECECEDEEEFEFEEEDECECEDEFEFEFDC
:101A3000EDECEBECEEEFF0EEECEBECEDEFF0EFEDD0
:101A4000EBEBECEEF0F0EFECEAEAEDF0F2F1EDEAC0
:101A5000E8EAEFF3F4F0EAE5E5EDF8FFF9E1B68046
:101A6000491E060007121A1A150F0B0C1015171530
:101A7000120E0D0F12151513100F0F11131414124F
:101A8000100F1012131413110F101113141312103E
:101A90001010121313121110101112131312101030
:101AA0001012131312111010111213131210101020
:101AB0001213141311100F1113141312100F10120C
:101AC000141413110F0F10131515120F0D0E1215FC
:101AD0001715100C0B0F151A1A120700061E497F56
:101AE000AACFEBFAFFFBF3EAE4E3E5EAEFF3F3F264
:101AF000EEEAE8E7E9ECEFF1F1EFEDEBE9E9EAEC2A
:101B0000EFF0F0EEEDEBEAEAEBEDEEEFEFEEECEB03
:101B1000EAEAEBEDEEEFEFEEECEBEAEAECEDEFEFFD
:101B2000EFEDECEAEAEBECEEEFEFEEEDEBEAEAEBF1
:101B3000ECEEEFEFEEEDEBEAEAEBEDEEF0F0EFECD2
:101B4000EAE9E9EBEDEFF1F1EFECE9E7E8EAEEF2D3
:101B5000F3F3EFEAE5E3E4EAF3FBFFFAEBCFAA8065
:101B60005530140500040C151B1C1A15100C0C0D17
:101B7000111517181613100E0E1012141616151331
:101B8000100F0F1112141515141211101011131437
:101B9000151514121110101113141515131210101D
:101BA0001012131515141311101011121415151409
:101BB0001311101011121415151412110F0F101308
:101BC0001516161412100E0E101316181715110DE7
:101BD0000C0C10151A1C1B150C0400051430557F35
:101BE000A1BFD9EDF9FFFFFAF4EDE7E3E2E4E7EC9A
:101BF000F0F3F4F3F1EEEBE9E7E7E8EAEDEFF1F10A
:101C0000F1EFEDEBE9E9E9EAEBEDEFF0F0F0EEED05
:101C1000EBEAE9E9EAECEEEFF0F0EFEEECEBEAE903
:101C2000EAEBECEEEFF0F0EFEEECEAE9E9EAEBEDEF
:101C3000EEF0F0F0EFEDEBEAE9E9E9EBEDEFF1F1D1
:101C4000F1EFEDEAE8E7E7E9EBEEF1F3F4F3F0ECBE
:101C5000E7E4E2E3E7EDF4FAFFFFF9EDD9BFA18095
:101C60005E402612060000050B12181C1D1B1813DF
:101C70000F0C0B0C0E1114161818171512100E0E4F
:101C80000E101214161616151412100F0F0F111233
:101C900014151616151311100F0F10111314151615
:101CA00015141311100F0F10111315161615141209
:101CB000110F0F0F101214151616161412100E0E07
:101CC0000E1012151718181614110E0C0B0C0F13FA
:101CD000181B1D1C18120B050000061226405E7F03
:101CE0009AB4CADEEDF7FDFFFEFAF4EFE9E5E2E1B2
:101CF000E2E4E7EBEEF1F3F3F3F1EFECEAE8E6E62A
:101D0000E6E8E9ECEEEFF1F1F1EFEEECEAE9E8E715
:101D1000E8E9EAECEDEFF0F0F0EFEEECEAE9E8E804
:101D2000E8E9EAECEEEFF0F0F0EFEDECEAE9E8E7F5
:101D3000E8E9EAECEEEFF1F1F1EFEEECE9E8E6E6E6
:101D4000E6E8EAECEFF1F3F3F3F1EEEBE7E4E2E1DE
:101D5000E2E5E9EFF4FAFEFFFDF7EDDECAB49A80A2
:101D6000654B35211208020001050B10161A1D1EC5
:101D70001D1B1814110E0C0C0C0E1013151719192D
:101D80001917161311100E0E0E1011131516171821
:101D90001716151312100F0F0F1011131516171712
:101DA0001716151311100F0F0F1012131516171801
:101DB0001716151311100E0E0E10111316171919F0
:101DC00019171513100E0C0C0C0E1114181B1D1ED8
:101DD0001D1A16100B05010002081221354B657FF4
:101DE00097ADC2D5E4F0F8FDFFFEFBF7F2EDE8E5B4
:101DF000E2E1E1E3E5E8EBEEF1F2F3F3F2F1EFEC2F
:101E0000EAE8E7E6E6E6E8E9EBEDEFF0F1F1F1F01C
:101E1000EEECEBE9E8E7E7E7E8E9EBEDEEEFF0F110
:101E2000F0EFEEEDEBE9E8E7E7E7E8E9EBECEEF001
:101E3000F1F1F1F0EFEDEBE9E8E6E6E6E7E8EAECF0
:101E4000EFF1F2F3F3F2F1EEEBE8E5E3E1E1E2E5E5
:101E5000E8EDF2F7FBFEFFFDF8F0E4D5C2AD9780A8
:101E600068523D2A1B0F0702000104080D12171AC1
:101E70001D1E1E1C1A1714110E0D0C0C0D0E101326
:101E800015171819191917161412100F0E0E0E0F18
:101E900011131416171818181716141211100F0E04
:101EA0000F10111214161718181817161413110FF3
:101EB0000E0E0E0F101214161719191918171513E4
:101EC000100E0D0C0C0D0E1114171A1C1E1E1D1ACF
:101ED00017120D0804010002070F1B2A3D52687FEC
:101EE00090A1B1BFCDD9E4EDF4F9FDFFFFFEFCF9FF
:101EF000F6F2EFEBE8E5E3E1E0E0E1E2E4E6E8EB6F
:101F0000EDEFF1F2F3F4F4F3F2F1EFEDEBEAE8E7E1
:101F1000E5E5E4E5E5E6E7E9EAECEEEFF0F1F2F21B
:101F2000F2F1F0EFEEECEAE9E7E6E5E5E4E5E5E716
:101F3000E8EAEBEDEFF1F2F3F4F4F3F2F1EFEDEBAD
:101F4000E8E6E4E2E1E0E0E1E3E5E8EBEFF2F6F910
:101F5000FCFEFFFFFDF9F4EDE4D9CDBFB1A1908007
:101F60006F5E4E4032261B120B0602000001030674
:101F7000090D1014171A1C1E1F1F1E1D1B191714E4
:101F800012100E0D0C0B0B0C0D0E10121415171851
:101F90001A1A1B1A1A191816151311100F0E0D0DF7
:101FA0000D0E0F101113151618191A1A1B1A1A18DC
:101FB00017151412100E0D0C0B0B0C0D0E10121425
:101FC00017191B1D1E1F1F1E1C1A1714100D0906A2
:101FD0000301000002060B121B2632404E5E6F7F8B
:101FE0008D9AA7B4BFCAD4DEE6EDF2F7FBFDFFFF82
:101FF000FFFDFCF9F7F4F1EEEBE8E6E3E2E1E0E007
:10200000E0E1E2E3E5E6E8EAECEEF0F2F3F4F4F422
:10201000F4F4F3F2F0EFEDEBEAE8E7E5E4E3E3E311
:10202000E3E3E4E5E7E8EAEBEDEFF0F2F3F4F4F4F0
:10203000F4F4F3F2F0EEECEAE8E6E5E3E2E1E0E006
:10204000E0E1E2E3E6E8EBEEF1F4F7F9FCFDFFFF97
:10205000FFFDFBF7F2EDE6DED4CABFB4A79A8D8090
:102060007265584B40352B2119120D0804020000EF
:1020700000020306080B0E111417191C1D1E1F1F4A
:102080001F1E1D1C1A19171513110F0D0C0B0B0B0E
:102090000B0B0C0D0F1012141517181A1B1C1C1CFF
:1020A0001C1C1B1A1817151412100F0D0C0B0B0B00
:1020B0000B0B0C0D0F11131517191A1C1D1E1F1FCA
:1020C0001F1E1D1C191714110E0B08060302000019
:1020D000000204080D1219212B35404B5865727F00
:1020E0008A949DA7B0B9C2CAD2D9E0E6EBF0F4F762
:1020F000FAFCFEFFFFFFFEFDFCFAF9F6F4F2EFED4D
:10210000EBE8E6E5E3E1E0DFDFDEDEDEDFE0E1E2B3
:10211000E3E5E6E8EAECEDEFF0F2F3F4F5F5F6F6D8
:10212000F6F5F5F4F3F2F0EFEDECEAE8E6E5E3E2DC
:10213000E1E0DFDEDEDEDFDFE0E1E3E5E6E8EBED78
:10214000EFF2F4F6F9FAFCFDFEFFFFFFFEFCFAF7F2
:10215000F4F0EBE6E0D9D2CAC2B9B0A79D948A8068
:10216000756B62584F463D352D261F19140F0B080D
:102170000503010000000102030506090B0D101202
:102180001417191A1C1E1F2020212121201F1E1D7B
:102190001C1A1917151312100F0D0C0B0A0A090936
:1021A000090A0A0B0C0D0F1012131517191A1C1D12
:1021B0001E1F2021212120201F1E1C1A1917141256
:1021C000100D0B09060503020100000001030508BC
:1021D0000B0F14191F262D353D464F58626B757F26
:1021E0008A949DA7B0B9C2CAD2D9E0E6EBF0F4F761
:1021F000FAFCFEFFFFFFFEFDFCFAF9F6F4F2EFED4C
:10220000EBE8E6E5E3E1E0DFDFDEDEDEDFE0E1E2B2
:10221000E3E5E6E8EAECEDEFF0F2F3F4F5F5F6F6D7
:10222000F6F5F5F4F3F2F0EFEDECEAE8E6E5E3E2DB
:10223000E1E0DFDEDEDEDFDFE0E1E3E5E6E8EBED77
:10224000EFF2F4F6F9FAFCFDFEFFFFFFFEFCFAF7F1
:10225000F4F0EBE6E0D9D2CAC2B9B0A79D948A8067
:10226000756B62584F463D352D261F19140F0B080C
:102270000503010000000102030506090B0D101201
:102280001417191A1C1E1F2020212121201F1E1D7A
:102290001C1A1917151312100F0D0C0B0A0A090935
:1022A000090A0A0B0C0D0F1012131517191A1C1D11
:1022B0001E1F2021212120201F1E1C1A1917141255
:1022C000100D0B09060503020100000001030508BB
:1022D0000B0F14191F262D353D464F58626B757F25
:1022E000868D939AA0A7ADB3B9BFC4CACFD4D8DDA9
:1022F000E1E5E9ECEFF2F5F7F9FAFCFDFEFFFFFF8F
:10230000FFFFFEFDFCFBFAF9F7F6F4F2F1EFEDEB5F
:10231000E9E8E6E4E3E1E0DFDEDDDCDBDADADADAC5
:10232000DADADADBDCDDDEDFE0E1E3E4E6E8E9EBA4
:10233000EDEFF1F2F4F6F7F9FAFBFCFDFEFFFFFF1B
:10234000FFFFFEFDFCFAF9F7F5F2EFECE9E5E1DD60
:10235000D8D4CFCAC4BFB9B3ADA7A09A938D868095
:1023600079726C655F58524C46403B35302B2722C2
:102370001E1A1613100D0A080605030201000000BC
:10238000000001020304050608090B0D0E101214CB
:102390001617191B1C1E1F20212223242525252545
:1023A00025252524232221201F1E1C1B1917161446
:1023B00012100E0D0B0908060504030201000000AF
:1023C00000000102030506080A0D1013161A1E224A
:1023D000272B30353B40464C52585F656C72797FF5
:1023E000868D939AA0A7ADB3B9BFC4CACFD4D8DDA8
:1023F000E1E5E9ECEFF2F5F7F9FAFCFDFEFFFFFF8E
:10240000FFFFFEFDFCFBFAF9F7F6F4F2F1EFEDEB5E
:10241000E9E8E6E4E3E1E0DFDEDDDCDBDADADADAC4
:10242000DADADADBDCDDDEDFE0E1E3E4E6E8E9EBA3
:10243000EDEFF1F2F4F6F7F9FAFBFCFDFEFFFFFF1A
:10244000FFFFFEFDFCFAF9F7F5F2EFECE9E5E1DD5F
:10245000D8D4CFCAC4BFB9B3ADA7A09A938D868094
:1024600079726C655F58524C46403B35302B2722C1
:102470001E1A1613100D0A080605030201000000BB
:10248000000001020304050608090B0D0E101214CA
:102490001617191B1C1E1F20212223242525252544
:1024A00025252524232221201F1E1C1B1917161445
:1024B00012100E0D0B0908060504030201000000AE
:1024C00000000102030506080A0D1013161A1E2249
:1024D000272B30353B40464C52585F656C72797FF4
:1024E0008386898C8F9295989B9EA2A5A7AAADB052
:1024F000B3B6B9BCBEC1C4C6C9CBCED0D3D5D7DA6A
:10250000DCDEE0E2E4E6E8EAEBEDEEF0F1F3F4F530
:10251000F6F8F9FAFAFBFCFDFDFEFEFEFFFFFFFFF9
:10252000FFFFFFFEFEFEFDFDFCFBFAFAF9F8F6F5F3
:10253000F4F3F1F0EEEDEBEAE8E6E4E2E0DEDCDA1B
:10254000D7D5D3D0CECBC9C6C4C1BEBCB9B6B3B043
:10255000ADAAA7A5A29E9B9895928F8C8986838011
:102560007C797673706D6A6764615D5A5855524F15
:102570004C494643413E3B393634312F2C2A2825DD
:1025800023211F1D1B1917151412110F0E0C0B0AF6
:10259000090706050504030202010101000000000D
:1025A0000000000101010202030405050607090AF3
:1025B0000B0C0E0F1112141517191B1D1F212325AB
:1025C000282A2C2F313436393B3E414346494C4F63
:1025D0005255585A5D6164676A6D707376797C7F75
:1025E0008386898C8F9295989B9EA2A5A7AAADB051
:1025F000B3B6B9BCBEC1C4C6C9CBCED0D3D5D7DA69
:10260000DCDEE0E2E4E6E8EAEBEDEEF0F1F3F4F52F
:10261000F6F8F9FAFAFBFCFDFDFEFEFEFFFFFFFFF8
:10262000FFFFFFFEFEFEFDFDFCFBFAFAF9F8F6F5F2
:10263000F4F3F1F0EEEDEBEAE8E6E4E2E0DEDCDA1A
:10264000D7D5D3D0CECBC9C6C4C1BEBCB9B6B3B042
:10265000ADAAA7A5A29E9B9895928F8C8986838010
:102660007C797673706D6A6764615D5A5855524F14
:102670004C494643413E3B393634312F2C2A2825DC
:1026800023211F1D1B1917151412110F0E0C0B0AF5
:10269000090706050504030202010101000000000C
:1026A0000000000101010202030405050607090AF2
:1026B0000B0C0E0F1112141517191B1D1F212325AA
:1026C000282A2C2F313436393B3E414346494C4F62
:1026D0005255585A5D6164676A6D707376797C7F74
:1026E0008386898C8F9295989B9EA2A5A7AAADB050
:1026F000B3B6B9BCBEC1C4C6C9CBCED0D3D5D7DA68
:10270000DCDEE0E2E4E6E8EAEBEDEEF0F1F3F4F52E
:10271000F6F8F9FAFAFBFCFDFDFEFEFEFFFFFFFFF7
:10272000FFFFFFFEFEFEFDFDFCFBFAFAF9F8F6F5F1
:10273000F4F3F1F0EEEDEBEAE8E6E4E2E0DEDCDA19
:10274000D7D5D3D0CECBC9C6C4C1BEBCB9B6B3B041
:10275000ADAAA7A5A29E9B9895928F8C898683800F
:102760007C797673706D6A6764615D5A5855524F13
:102770004C494643413E3B393634312F2C2A2825DB
:1027800023211F1D1B1917151412110F0E0C0B0AF4
:10279000090706050504030202010101000000000B
:1027A0000000000101010202030405050607090AF1
:1027B0000B0C0E0F1112141517191B1D1F212325A9
:1027C000282A2C2F313436393B3E414346494C4F61
:1027D0005255585A5D6164676A6D707376797C7F73
:1027E0008386898C8F9295989B9EA2A5A7AAADB04F
:1027F000B3B6B9BCBEC1C4C6C9CBCED0D3D5D7DA67
:10280000DCDEE0E2E4E6E8EAEBEDEEF0F1F3F4F52D
:10281000F6F8F9FAFAFBFCFDFDFEFEFEFFFFFFFFF6
:10282000FFFFFFFEFEFEFDFDFCFBFAFAF9F8F6F5F0
:10283000F4F3F1F0EEEDEBEAE8E6E4E2E0DEDCDA18
:10284000D7D5D3D0CECBC9C6C4C1BEBCB9B6B3B040
:10285000ADAAA7A5A29E9B9895928F8C898683800E
:102860007C797673706D6A6764615D5A5855524F12
:102870004C494643413E3B393634312F2C2A2825DA
:1028800023211F1D1B1917151412110F0E0C0B0AF3
:10289000090706050504030202010101000000000A
:1028A0000000000101010202030405050607090AF0
:1028B0000B0C0E0F1112141517191B1D1F212325A8
:1028C000282A2C2F313436393B3E414346494C4F60
:1028D0005255585A5D6164676A6D707376797C7F72
:1028E000FFFBFAF9F7F7F6F5F4F3F2F1F0EFEEED9E
:1028F000ECEBEAE9E8E7E6E5E4E3E2E1E0DFDEDD90
:10290000DCDBDAD9D8D7D6D5D5D3D3D2D1D0CFCE78
:10291000CDCCCBCAC9C8C7C6C5C4C3C2C1C0BFBE5F
:10292000BDBCBBBAB9B8B7B6B5B4B3B2B1B0AFAE4F
:10293000ADACABAAA9A9A8A7A6A5A4A3A2A1A09F34
:102940009E9D9C9B9A999897969594939291908F1F
:102950008E8D8C8B8A89888786858483828180800E
:102960007F7E7D7C7B7A79787776757473727170EF
:102970006F6E6D6C6B6A69686766656463626160DF
:102980005F5E5D5C5B5A59585756565554535251C9
:10299000504F4E4D4C4B4A494847464544434241AF
:1029A000403F3E3D3C3B3A3938373635343332319F
:1029B000302F2E2D2C2C2A2A292827262524232285
:1029C00021201F1E1D1C1B1A19181716151413126F
:1029D00011100F0E0D0C0B0A090808060504007FE4
:1029E000FDFFFFFEFDFCFBFAF9F7F6F5F4F3F2F15B
:1029F000F0EFEEEDECEBEAE9E8E7E6E5E4E3E2E14F
:102A0000E0DFDEDDDCDBDAD9D8D7D6D5D4D3D2D13E
:102A1000D0CFCECDCCCBCAC9C8C7C6C5C4C3C2C12E
:102A2000BFBEBDBCBBBAB9B8B7B6B5B4B3B2B1B02E
:102A3000AFAEADACABAAA9A8A7A6A5A4A3A2A1A01E
:102A40009F9E9D9C9B9A999897969594939291900E
:102A50008F8E8D8C8B8A8988878685848382817FFF
:102A60007E7D7C7B7A797877767574737271706FFE
:102A70006E6D6C6B6A696867666564636261605FEE
:102A80005E5D5C5B5A595857565554535251504FDE
:102A90004E4D4C4B4A494847464544434241403ECF
:102AA0003D3C3B3A393837363534333231302F2ECE
:102AB0002D2C2B2A292827262524232221201F1EBE
:102AC0001D1C1B1A191817161514131211100F0EAE
:102AD0000D0C0B0A09080605040302010000027F21
:102AE000FEFFFEFEFDFCFBFAF9F8F7F6F5F4F3F253
:102AF000F1F0EFEEEDECEBEAE9E8E7E6E5E4E3E13F
:102B0000E0DFDEDDDCDBDAD9D8D7D6D5D4D3D2D13D
:102B1000D0CFCECDCCCBCAC9C8C7C6C5C4C3C2C12D
:102B2000C0BFBEBDBCBBBAB9B8B7B6B5B4B3B2B11D
:102B3000AFAEADACABAAA9A8A7A6A5A4A3A2A1A01D
:102B40009F9E9D9C9B9A999897969594939291900D
:102B50008F8E8D8C8B8A8988878685848382817FFE
:102B60007E7D7C7B7A797877767574737271706FFD
:102B70006E6D6C6B6A696867666564636261605FED
:102B80005E5D5C5B5A595857565554535251504EDE
:102B90004D4C4B4A494847464544434241403F3EDD
:102BA0003D3C3B3A393837363534333231302F2ECD
:102BB0002D2C2B2A292827262524232221201F1EBD
:102BC0001C1B1A191817161514131211100F0E0DBD
:102BD0000C0B0A0908070605040302010100017F26
:102BE000FFFCFBFAF9F8F7F6F5F4F3F2F1F0EFEE8B
:102BF000EDECEBEAE9E8E7E6E5E4E3E2E1E0DFDE7D
:102C0000DDDCDBDAD9D8D7D6D5D4D3D2D1D0CFCE6C
:102C1000CDCCCBCAC9C8C7C6C5C4C4C3C2C1C0BF56
:102C2000BEBDBCBBBAB9B8B7B6B5B4B3B2B1B0AF3C
:102C3000AEADACABAAA9A8A7A6A5A4A3A2A1A09F2C
:102C40009E9D9C9B9A999897969594939291908F1C
:102C50008E8D8C8B8A898887868584838281807F0C
:102C60007F7E7D7C7B7A79787776757473727170EC
:102C70006F6E6D6C6B6A69686766656463626160DC
:102C80005F5E5D5C5B5A59585756555453525150CC
:102C90004F4E4D4C4B4A49484746454443424140BC
:102CA0003F3E3D3C3B3B3A393837363534333231A1
:102CB000302F2E2D2C2B2A2928272625242322218C
:102CC000201F1E1D1C1B1A1918171615141312117C
:102CD000100F0E0D0C0B0A09080706050403007FF0
:102CE000FFF4F5F4F2F2F0F1EEEEEDECEBEAEAE8E7
:102CF000E8E6E6E5E4E3E2E1E0DFDEDDDCDBDAD9CD
:102D0000D9D7D7D6D5D4D3D2D1D0CFCECDCCCBCAAC
:102D1000CAC8C8C7C6C5C4C3C2C1C0BFBEBDBCBB8C
:102D2000BBB9B9B8B7B6B5B4B3B2B1B0AFAEADAC6C
:102D3000ACABAAA9A8A7A6A5A4A3A2A1A09F9E9D4B
:102D40009D9C9B9A999897969594939291908F8E2B
:102D50008E8D8C8B8A898887868584838281807F0B
:102D60007F7E7D7C7B7A79787776757473727171EA
:102D7000706F6E6D6C6B6A696867666564636262CA
:102D800061605F5E5D5C5B5A5958575655545353AA
:102D90005251504F4E4D4C4B4A4948474646444489
:102DA000434241403F3E3D3C3B3A39383737353569
:102DB00034333231302F2E2D2C2B2A292828262649
:102DC0002524232221201F1E1D1C1B1A1919171729
:102DD000151514131211110E0F0D0D0B0A0B007F98
:102DE000FFFBFAF9F8F7F6F5F4F3F2F1F0EFEEED98
:102DF000ECEBEAE9E8E7E6E5E4E3E2E1E0DFDEDD8B
:102E0000DCDBDAD9D8D7D6D5D4D3D2D1D0CFCECD7A
:102E1000CDCCCBCAC9C8C7C6C5C4C3C2C1C0BFBE5A
:102E2000BDBCBBBAB9B8B7B6B5B4B3B2B1B0AFAE4A
:102E3000ADACABAAA9A8A7A7A6A5A4A3A2A1A09F31
:102E40009E9D9C9B9A999897969594939291908F1A
:102E50008E8D8C8B8A898887868584838281808009
:102E60007F7E7D7C7B7A79787776757473727170EA
:102E70006F6E6D6C6B6A69686766656463626160DA
:102E80005F5E5D5C5B5A59585857565554535251C2
:102E9000504F4E4D4C4B4A494847464544434241AA
:102EA000403F3E3D3C3B3A39383736353433323299
:102EB00031302F2E2D2C2B2A29282726252423227A
:102EC00021201F1E1D1C1B1A19181716151413126A
:102ED00011100F0E0D0C0B0A090807060504007FE0
:102EE000FFF8F7F8F6F5F4F3F2F1F0EFEEEDECEBB6
:102EF000EAEAE8E7E7E5E5E4E3E2E1E0DFDEDDDC9E
:102F0000DBDAD9D8D7D6D5D4D3D2D1D0CFCECDCC89
:102F1000CCCBCAC9C8C7C6C5C4C3C2C1C0BFBEBD69
:102F2000BCBBBAB9B8B7B6B5B4B4B2B2B1B0AFAE53
:102F3000ADACABAAA9A8A7A6A5A4A3A2A1A09F9E39
:102F40009D9C9B9A99999897969594939291908F1E
:102F50008E8D8C8B8A898887868584838281808008
:102F60007F7E7D7C7B7A79787776757473727170E9
:102F70006F6E6D6C6B6A69686766666564636261D3
:102F8000605F5E5D5C5B5A595857565554535251B9
:102F9000504F4E4D4D4B4B4A49484746454443429E
:102FA00041403F3E3D3C3B3A393837363534333388
:102FB0003231302F2E2D2C2B2A2928272625242369
:102FC0002221201F1E1D1C1B1A1A18181715151454
:102FD000131211100F0E0D0C0B0A09070807007FC2
:102FE000FDFFF7F8FAF6F5F6F4F2F2F1EFEFEEEC9A
:102FF000ECEBEAE9E8E7E6E5E4E3E2E1E0DFDEDD89
:10300000DCDBDAD9D8D7D6D5D5D3D2D2D0CFCFCE74
:10301000CCCCCBC9C9C8C7C6C5C4C3C2C1C0BFBE5A
:10302000BDBCBBBAB9B8B7B6B5B4B3B2B1B0AFAE48
:10303000ADACACAAA9A9A8A6A6A5A3A3A2A1A09F2E
:103040009E9D9C9B9A999897969594939291908F18
:103050008E8D8C8B8A898887868584838282807F07
:103060007F7D7D7C7B7A79787776757473727170E9
:103070006F6E6D6C6B6A69686766656463626160D8
:103080005F5E5D5C5C5A59595756565553535251C1
:10309000504F4E4D4C4B4A494847464544434241A8
:1030A000403F3E3D3C3B3A39383736363433333196
:1030B00030302F2D2D2C2A2A29282726252423227B
:1030C00021201F1E1D1C1B1A191817161514131367
:1030D0001110100E0D0D0B090A0905070800027FDB
:1030E000F7FEFFFFFEFEFDFCFBFAF9F8F7F6F5F43C
:1030F000F3F2F1F0EEEDECEBEAE9E8E7E6E5E4E324
:10310000E2E1E0DFDEDDDCDBDAD9D8D7D6D5D4D317
:10311000D1D0CFCECDCCCBCAC9C8C7C6C5C4C3C217
:10312000C1C0BFBEBDBCBBBAB9B8B7B5B4B3B2B10C
:10313000B0AFAEADACABAAA9A8A7A6A5A4A3A2A107
:10314000A09F9E9D9C9B9998979695949392919001
:103150008F8E8D8C8B8A8988878685848382817FF8
:103160007E7D7C7B7A797877767574737271706FF7
:103170006E6D6C6B6A6968676664636261605F5EEE
:103180005D5C5B5A595857565554535251504F4EE7
:103190004D4C4B4A4847464544434241403F3E3DE3
:1031A0003C3B3A393837363534333231302F2E2CD8
:1031B0002B2A292827262524232221201F1E1D1CD7
:1031C0001B1A1918171615141312110F0E0D0C0BCC
:1031D0000A09080706050403020101000001087F2F
:1031E000F6FFFFFDFCFAFAF9F8F7F6F5F4F3F2F161
:1031F000F0EFEEEDECEBEAE9E8E7E6E4E3E3E2E149
:10320000DFDEDDDDDCDAD9D8D7D6D5D4D3D2D1D044
:10321000CFCECDCCCBCAC9C8C7C6C5C4C3C2C1C036
:10322000BFBEBDBCBBBAB9B8B7B6B5B4B3B2B1B026
:10323000AFAEADACABAAA9A8A7A6A5A4A3A2A1A016
:103240009F9E9D9C9B9A9998979695949392919006
:103250008F8E8D8C8B8A8988878685848382817FF7
:103260007E7D7C7B7A797877767574737271706FF6
:103270006E6D6C6B6A696867666564636261605FE6
:103280005E5D5C5B5A595857565554535251504FD6
:103290004E4D4C4B4A494847464544434241403FC6
:1032A0003E3D3C3B3A393837363534333231302FB6
:1032B0002E2D2C2B2A292827262523222221201EA9
:1032C0001D1C1C1B191817161514131211100F0EA4
:1032D0000D0C0B0A09080706050503020000097F0B
:1032E000F7FFFEFDFCFBFAF9F8F7F6F5F4F3F2F060
:1032F000EFEEEDECEBEAE9E8E7E6E5E4E3E2E1E056
:10330000DFDEDDDCDBDAD9D8D7D6D5D4D3D2D1D045
:10331000CFCECDCCCBCAC9C8C7C6C5C4C3C2C1C035
:10332000BFBEBDBCBBBAB9B8B7B6B5B4B3B2B1B025
:10333000AFAEADACABAAA9A8A7A6A5A4A3A2A1A015
:103340009F9E9D9C9B9A9998979695949392919005
:103350008F8E8D8C8B8A8988878685848382817FF6
:103360007E7D7C7B7A797877767574737271706FF5
:103370006E6D6C6B6A696867666564636261605FE5
:103380005E5D5C5B5A595857565554535251504FD5
:103390004E4D4C4B4A494847464544434241403FC5
:1033A0003E3D3C3B3A393837363534333231302FB5
:1033B0002E2D2C2B2A292827262524232221201FA5
:1033C0001E1D1C1B1A191817161514131211100F95
:1033D0000D0C0B0A09080706050403020100087F0B
:1033E000F7FFFFFCFCFBFAF9F8F7F6F5F4F3F2F15E
:1033F000F0EFEEEDECEBEAE9E8E7E6E5E4E3E2E145
:10340000E0DFDDDDDBDBD9D9D7D6D5D4D3D2D1D03F
:10341000CFCECDCCCBCAC9C8C7C6C5C4C3C2C1C034
:10342000BFBEBDBCBBBAB9B8B7B6B5B4B3B2B1B024
:10343000AFAEADACABAAA9A8A7A6A5A4A3A2A1A014
:103440009F9E9D9C9B9A9998979695949392919004
:103450008F8E8D8C8B8A8988878685848382817FF5
:103460007E7D7C7B7A797877767574737271706FF4
:103470006E6D6C6B6A696867666564636261605FE4
:103480005E5D5C5B5A595857565554535251504FD4
:103490004E4D4C4B4A494847464544434241403FC4
:1034A0003E3D3C3B3A393837363534333231302FB4
:1034B0002E2D2C2B2A2928262624242222201F1EAA
:1034C0001D1C1B1A191817161514131211100F0EA4
:1034D0000D0C0B0A09080706050403030000087F0A
:1034E000F5FFFBFDF8FBF7F7F7F4F5F3F3F1F0F078
:1034F000EEEEECEBEAE9E9E7E6E5E4E4E2E1E0DF61
:10350000DEDDDCDBDAD9D8D7D6D5D4D3D2D1D0CF53
:10351000CECDCCCBCAC9C8C7C6C5C4C3C2C1C0BF43
:10352000BEBDBCBBBAB9B8B7B6B5B4B3B2B1B0AF33
:10353000AEADACABAAA9A8A7A6A5A5A3A2A1A0A021
:103540009E9D9C9B9B999997969594949291908F10
:103550008F8D8D8B8A8A8888868685838381817FFB
:103560007E7E7C7C7A7979777775757472727070EB
:103570006F6E6D6B6B6A6968666664646362615FD7
:103580005F5E5D5C5A5A59585756555453525150C4
:103590004F4E4D4C4B4A49484746454443424140B3
:1035A0003F3E3D3C3B3A39383736353433323130A3
:1035B0002F2E2D2C2B2A2928272625242322212093
:1035C0001F1E1D1B1B1A1918161615141311110F87
:1035D0000F0E0C0C0A0B08080804070204000A7FEF
:1035E000E9FFF1F5F7F0F2F3EEEFF0ECECECE9E9DE
:1035F000E9E7E6E6E4E3E3E1E0E1DFDDDEDCDBDBB7
:10360000D9D8D8D6D5D5D4D2D2D1CFCFCECDCCCB98
:10361000CAC9C8C7C6C6C4C4C3C1C1C0BFBEBDBC79
:10362000BBBAB9B8B8B6B5B5B3B2B2B1AFAFAEAD5B
:10363000ACABAAA9A8A7A6A5A4A4A3A1A1A09E9E3D
:103640009D9C9B9A999897969594939292908F8F20
:103650008E8D8C8B8A898887868584838281817F01
:103660007E7E7D7C7B7A79787776757473727170E3
:10367000706F6D6D6C6B6A696867666564636261C3
:10368000615F5E5E5C5B5B5A5958575655545352A6
:103690005150504E4D4D4C4A4A4947474645444388
:1036A0004241403F3E3E3C3B3B393938373635346A
:1036B00033323130302E2D2D2B2A2A29272726244C
:1036C00024232122201E1F1E1C1C1B19191816162C
:1036D000161313130F10110C0D0F080A0E00167F8E
:1036E000DCFFF3E9F0F3EDE9EDEEE9E7EAE9E5E423
:1036F000E6E5E1E1E2E0DEDEDEDCDADBDBD8D7D7EF
:10370000D7D5D3D4D3D1D0D0CFCDCDCDCBCAC9C9C5
:10371000C8C6C6C5C4C2C2C2C0BFBFBEBCBBBBBA9E
:10372000B8B8B7B6B5B4B4B3B1B1B0AFADADADAB79
:10373000AAAAA9A7A6A6A5A4A3A2A1A09F9F9E9C52
:103740009C9B9A99989896959494939191908F8E2A
:103750008D8D8B8A8A898787868584838381808003
:103760007F7E7C7C7B7A79787876757574727271DD
:10377000706F6E6E6C6B6B6A6967676665646363B6
:103780006160605F5E5D5C5B5A595958565555548F
:10379000525252504F4E4E4C4B4B4A494847474568
:1037A0004444434140403F3D3D3D3B3A3939373643
:1037B000363534323232302F2F2E2C2B2C2A28281B
:1037C0002827242425232121211F1D1E1E1A191BF1
:1037D0001A16151816111216120C0F160C00237F4C
:1037E000D0FCFFEFE7EDF3F1EAE7EAEDEBE6E4E624
:1037F000E8E5E1E0E2E2E0DDDCDEDDDBD9D8D9D9E5
:10380000D6D4D4D5D4D1D0D0D0CFCDCBCBCBCAC8C1
:10381000C7C7C7C5C3C2C2C2C1BFBEBEBEBCBAB99C
:10382000B9B9B7B6B5B5B4B3B1B1B0B0AEADACAC73
:10383000ABA9A8A8A7A6A5A3A3A3A2A09F9F9E9D4E
:103840009B9A9A9A989796969594929191908F8E2A
:103850008D8D8C8A89888887868484848381807F03
:103860007F7E7C7B7B7B79787777767573727271DC
:10387000706F6E6E6D6B6A696968676565656462B5
:103880006160605F5D5C5C5C5A5958575756545391
:103890005352514F4F4E4E4C4B4A4A49484646466A
:1038A0004543414141403E3D3D3D3C3A3838383743
:1038B0003534343432302F2F2F2E2B2A2B2B292620
:1038C00026272624222123221F1D1D1F1E1A1719F9
:1038D0001B1914121518150E0C12181000032F7F47
:1038E000C1EEFFF9EBE3E4EBEFEDE7E2E1E5E7E65C
:1038F000E2DEDDDFE1E0DDDAD8D9DBDAD8D5D3D41A
:10390000D5D5D3D0CECECFCFCECBC9C9C9C9C8C6E5
:10391000C4C4C4C4C3C1BFBEBEBEBEBCBAB9B9B9BB
:10392000B8B7B5B4B3B3B3B2B0AEAEAEAEACABA98C
:10393000A9A8A8A7A5A4A3A3A3A2A09F9E9E9D9D5E
:103940009B9998989897969493939392918F8E8D34
:103950008D8D8B8A89888887868583828282817F04
:103960007E7D7D7D7C7A79787777767574727272D8
:1039700071706E6D6C6C6C6B6968676767666462AA
:10398000626161605F5D5C5C5C5B5A58575756567C
:103990005453515151514F4D4C4C4C4B4A48474652
:1039A0004646454341414141403E3C3B3B3B3B3920
:1039B00037363636363431303031312F2C2A2A2BF7
:1039C0002C2A272524262725221F1E2022211D19C7
:1039D000181A1E1D181210141B1C140600113E7F0D
:1039E000B6E1F9FFF7EBE2E0E4E9EDECE7E2DEDE79
:1039F000E0E3E4E2DEDBD9D9DBDCDCD9D6D4D3D317
:103A0000D4D5D4D1CFCDCCCDCECDCCCAC7C6C6C6E9
:103A1000C7C6C4C2C0BFBFC0C0BFBDBBB9B9B9B9BA
:103A2000B8B7B5B3B2B2B2B2B1B0AEACABABABAB90
:103A3000AAA8A6A5A5A5A4A4A3A19F9E9E9E9E9D5F
:103A40009B9A9897979797959492919090908F8E34
:103A50008D8B8A8A8A898887858483838382817F04
:103A60007E7D7C7C7C7B7A787776757575747271D7
:103A7000706F6F6F6E6D6B6A6868686867656462A7
:103A800061616161605E5C5B5B5A5A5A595755547B
:103A900054545453514F4E4D4D4D4D4C4A4847464A
:103AA0004646464442403F3F40403F3D3B3938391F
:103AB00039393835333231323332302E2B2A2B2CF0
:103AC0002C2B2926232324262624211D1B1C1F21C1
:103AD000211D181312161B1F1D140800061E497FF6
:103AE000ABD1EDFCFFF9F0E6DFDEE0E4E9EBEAE77D
:103AF000E2DDDADADBDEDFE0DEDBD8D5D3D3D4D526
:103B0000D6D6D4D1CFCCCBCBCCCDCDCCCAC8C6C4E5
:103B1000C3C3C4C4C4C3C1BFBDBBBBBBBBBBBBB9B8
:103B2000B7B5B4B3B2B3B3B2B2B0AEACABAAAAAA93
:103B3000AAAAA8A7A5A3A2A2A2A2A1A19F9E9C9A5D
:103B40009A99999999989695939291919190908F2D
:103B50008D8B8A8988888888878684828180807F07
:103B60007F7F7E7D7B7978777777777675747270D3
:103B70006F6F6E6E6E6D6C6A6967666666666565A8
:103B80006361605E5E5D5D5D5D5C5A58575555557D
:103B900055555453514F4D4D4C4C4D4C4B4A484646
:103BA00044444444444442403E3C3B3B3B3C3C3B1D
:103BB00039373533323233343433302E2B29292AF6
:103BC0002B2C2C2A2724211F2021242525221D18B7
:103BD0001514161B1F2120190F060003122E547FE7
:103BE000A2C2DCEFFBFFFDF7EFE6E0DCDBDDE0E3AC
:103BF000E6E8E7E5E2DEDAD7D5D5D6D8D9DADAD9FC
:103C0000D7D4D1CECCCCCCCCCDCECECDCCCAC7C5E2
:103C1000C3C2C1C1C2C2C2C2C1BFBDBBB9B8B7B6BF
:103C2000B7B7B7B7B6B5B3B1AFADACACACACACAC85
:103C3000ABAAA9A7A5A3A2A1A1A1A1A1A09F9E9D56
:103C40009B9998979696969695959492918F8D8C30
:103C50008B8B8B8B8A8A8988868583828080808003
:103C60007F7F7F7D7C7A79777675757474747473D1
:103C700072706E6D6B6A6A696969696867666462A9
:103C800061605F5E5E5E5E5E5D5C5A585655545381
:103C9000535353535352504E4C4A4948484848494D
:103CA0004847464442403E3D3D3D3D3E3E3D3C3A18
:103CB0003835333231313233333333312E2B2826FA
:103CC00025252627292A2A2825211D1A1817191CD7
:103CD0001F2224231F19100802000410233D5D7FBA
:103CE0009CB6CEE2F0FAFFFFFCF6EFE8E2DDDAD9AF
:103CF000DADCDFE1E4E5E5E4E2DEDBD7D4D2D1D003
:103D0000D1D1D3D4D4D5D4D2D0CECBC9C7C5C4C4D5
:103D1000C4C5C5C6C6C5C4C3C1BFBCBAB9B7B7B7A9
:103D2000B7B7B7B7B7B6B5B3B2B0AEACABAAA9A97F
:103D3000A9A9A9A9A8A8A6A5A3A19F9E9C9C9B9B55
:103D40009B9B9B9B9A9997969492918F8E8E8D8D2B
:103D50008D8D8D8C8B8A8987858382818080808000
:103D60007F7F7F7E7D7C7A787675747372727272D3
:103D7000727171706E6D6B696866656464646464A9
:103D800064636361605E5C5A59575756565656567F
:103D900056555453514F4D4C4A4948484848484855
:103DA0004848464543403E3C3B3A39393A3A3B3B2A
:103DB0003B3A383634312F2D2B2A2B2B2C2E2E2FFD
:103DC0002E2D2B2824211D1B1A1A1B1E20232526CD
:103DD00025221D171009030000050F1D3149637FBF
:103DE00097ADC2D4E3EFF8FDFFFEFBF6F0EAE4DFA7
:103DF000DBD8D7D6D7D9DBDDDFE1E1E1E0DFDCD905
:103E0000D6D3D0CECCCBCACACBCCCCCDCECECDCCDB
:103E1000CBC9C7C5C2C0BEBDBBBBBBBBBBBBBCBCAB
:103E2000BCBBBAB9B7B5B3B1AFAEACABAAAAAAAA7C
:103E3000AAAAAAAAA9A8A7A6A4A2A09E9D9B9A9A4C
:103E4000999999999999999897969493918F8D8C1E
:103E50008A898988888888888887878684838180FA
:103E60007E7C7B79787877777777777776767573D6
:103E700072706E6C6B6968676666666666666665B4
:103E8000656462615F5D5B59585756555555555588
:103E9000555555545351504E4C4A4846454443435A
:103EA0004344444444444442413F3D3A3836343329
:103EB0003231313233333435353433312F2C2926F6
:103EC00023201F1E1E1E20222426282928272420C6
:103ED0001B150F090401000207101C2B3D52687FBF
:103EE00092A4B5C4D3DFEAF2F8FDFFFFFEFBF7F3BF
:103EF000EEE9E4DFDBD8D5D4D3D3D3D4D6D7D9DA1F
:103F0000DBDCDCDCDBDAD8D6D3D0CECBC8C6C4C38E
:103F1000C2C1C1C1C1C2C2C3C3C3C3C3C2C1C0BE87
:103F2000BCBAB8B6B4B2B0AFAEADACACACACACAC85
:103F3000ACACACACABAAA9A7A6A4A2A09E9C9B9932
:103F40009897979696969696969696959594939119
:103F5000908E8C8A89878584828181808080808010
:103F60007F7F7F7F7E7E7D7B7A78767573716F6EC3
:103F70006C6B6A6A696969696969696968686766B1
:103F80006463615F5D5B59585655545353535353A3
:103F900053535353535251504F4D4B49474543414F
:103FA0003F3E3D3C3C3C3C3C3D3D3E3E3E3E3D3C40
:103FB0003B393734312F2C2927252423232324254B
:103FC0002628292B2C2C2C2B2A2724201B16110CBD
:103FD000080401000002070D15202C3B4A5B6D7F91
:103FE0008E9DABB9C6D1DCE5EDF3F8FCFEFFFFFD1D
:103FF000FBF8F4F0ECE8E3DFDBD8D5D2D1CFCFCEBD
:10400000CFCFD0D1D2D3D4D5D6D6D6D6D5D4D3D17E
:10401000CFCDCBC8C6C3C1BFBDBBBAB9B8B7B7B7A0
:10402000B7B7B7B8B8B8B8B8B8B7B7B6B4B3B1B02F
:10403000AEACAAA8A6A4A2A19F9E9D9D9C9C9C9B61
:104040009C9C9C9C9C9B9B9A9A9998969593918FEB
:104050008E8C8A888685848382818080808080801F
:104060007F7F7F7F7F7E7D7C7B7A797775737170B0
:104070006E6C6A69676665656464636363636364E1
:10408000636363626261605E5D5B59575553514F74
:104090004E4C4B4948484747474747474848484898
:1040A00048484746454442403E3C39373432302E3A
:1040B0002C2B2A292929292A2B2C2D2E2F3030313F
:1040C00030302E2D2A2724201C17130F0B07040233
:1040D00000000103070C121A232E39465462717F27
:1040E0008B97A2ADB7C1CBD3DCE3E9EFF4F8FBFDCE
:1040F000FEFFFFFEFDFBF8F5F2EFEBE7E3E0DCD9B6
:10410000D6D3D0CECCCAC9C8C7C7C7C7C8C8C9CA02
:10411000CACBCCCCCDCDCDCDCCCCCBCAC9C7C6C4F7
:10412000C2C0BDBBB9B7B4B2B0AEADABAAA9A8A767
:10413000A6A6A5A5A5A5A5A5A5A5A5A5A5A5A5A42E
:10414000A4A3A2A19F9E9C9B99979593918F8D8CE0
:104150008A88878584838281818080808080808036
:104160007F7F7F7F7F7F7E7E7D7C7B7A7877757394
:1041700072706E6C6A6866646361605E5D5C5B5BF6
:104180005A5A5A5A5A5A5A5A5A5A5A5A5A59595893
:104190005756555452514F4D4B484644423F3D3B74
:1041A00039383635343333323232323333343535CD
:1041B0003637373838383837363533312F2C2926CB
:1041C000231F1C1814100D0A07040201000001022D
:1041D00004070B10161C232C343E48525D68747F74
:1041E00089939DA6B0B8C1C9D1D8DFE5EAEFF3F74E
:1041F000FAFCFDFFFFFFFEFDFCFAF7F5F2EFECE83D
:10420000E5E2DEDBD8D5D2CFCCCAC8C6C5C4C3C2AE
:10421000C1C1C1C1C1C1C2C2C3C3C4C4C5C5C5C572
:10422000C5C5C5C4C3C2C1C0BFBDBBB9B7B5B3B1B5
:10423000AFADABA9A7A5A3A19F9E9C9B9A99989867
:10424000979797969696969696969696969696950C
:104250009594949392918F8E8C8B89878583817F9F
:104260007E7C7A7876747371706E6D6C6B6B6A6A33
:1042700069696969696969696969696968686867B3
:10428000676665646361605E5C5A58565452504E6E
:104290004C4A48464442403F3E3D3C3B3A3A3A3A1B
:1042A0003A3A3A3B3B3C3C3D3D3E3E3E3E3E3E3D47
:1042B0003C3B3A39373533302D2A2724211D1A1734
:1042C00013100D0A0805030201000000020305088F
:1042D0000C10151A20272E363E474F59626C767FF8
:1042E000889098A0A8AFB7BEC5CCD2D8DDE2E7ECE5
:1042F000EFF3F6F9FBFCFEFFFFFFFFFEFDFCFAF813
:10430000F6F3F1EEEBE8E5E2DFDCD9D6D3D0CDCBA6
:10431000C8C6C4C2C0BEBDBCBAB9B9B8B8B7B7B7D1
:10432000B7B7B8B8B8B8B9B9B9BABABABABABAB9FF
:10433000B9B8B8B7B6B5B4B3B1B0AEACAAA8A7A473
:10434000A2A09E9C9A98969492908E8D8B89888735
:104350008685848382818181808080808080808046
:104360007F7F7F7F7F7F7F7E7E7E7D7C7B7A79787B
:1043700077767472716F6D6B69676563615F5D5BA2
:1043800058575553514F4E4C4B4A4948474746465C
:1043900045454545454546464647474747484848B9
:1043A000484847474646454342413F3D3B393734FD
:1043B000322F2C292623201D1A1714110E0C090741
:1043C000050302010000000001030406090C10139C
:1043D000181D22272D333A414850575F676F777F6A
:1043E000868C9399A0A6ACB2B8BEC3C8CED3D7DC96
:1043F000E0E4E8EBEEF1F4F6F8FAFCFDFEFEFFFF78
:10440000FFFEFEFDFCFBF9F8F6F4F2EFEDEAE8E55D
:10441000E2E0DDDAD7D4D1CFCCC9C6C4C1BFBDBAC2
:10442000B8B6B4B3B1AFAEADACABAAA9A8A8A7A7B4
:10443000A6A6A6A6A6A6A6A6A6A6A6A6A6A7A7A719
:10444000A7A7A6A6A6A6A5A5A4A3A3A2A1A09F9D33
:104450009C9B9997969492908E8C8A888684828071
:104460007D7B79777573716F6D6B69686664636264
:10447000605F5E5D5C5C5B5A5A595959595858588F
:10448000585859595959595959595959595959589F
:10449000585757565554535251504E4C4B49474517
:1044A00042403E3B393633302E2B2825221F1D1A21
:1044B000171512100D0B0907060403020101000075
:1044C00000010102030507090B0E1114171B1F231E
:1044D000282C31373C41474D53595F666C73797FC7
:1044E00084898E93979CA1A5AAAEB3B7BCC0C4C85B
:1044F000CCCFD3D7DADDE0E3E6E9EBEEF0F2F4F689
:10450000F8F9FAFCFCFDFEFEFFFFFFFFFFFEFEFDDB
:10451000FCFBFAF9F7F6F4F3F1EFEDEBE9E6E4E290
:10452000DFDDDAD8D5D2D0CDCAC8C5C2BFBDBAB7D3
:10453000B5B2B0ADABA8A6A4A29F9D9B9997969447
:1045400092918F8E8C8B8A898887868584848382DA
:104550008281818180808080808080808080808056
:104560007F7F7F7F7F7F7F7F7F7F7F7E7E7E7D7D62
:104570007C7B7B7A7978777675747371706E6D6BEE
:104580006968666462605D5B595754524F4D4A4892
:104590004542403D3A3735322F2D2A272522201D0E
:1045A0001B19161412100E0C0B0908060504030241
:1045B00001010000000000010102030305060709D4
:1045C0000B0D0F111416191C1F2225282C30333700
:1045D0003B3F43484C51555A5E63686C71767B7F14
:1045E00084898E93979CA1A5AAAEB3B7BCC0C4C85A
:1045F000CCCFD3D7DADDE0E3E6E9EBEEF0F2F4F688
:10460000F8F9FAFCFCFDFEFEFFFFFFFFFFFEFEFDDA
:10461000FCFBFAF9F7F6F4F3F1EFEDEBE9E6E4E28F
:10462000DFDDDAD8D5D2D0CDCAC8C5C2BFBDBAB7D2
:10463000B5B2B0ADABA8A6A4A29F9D9B9997969446
:1046400092918F8E8C8B8A898887868584848382D9
:104650008281818180808080808080808080808055
:104660007F7F7F7F7F7F7F7F7F7F7F7E7E7E7D7D61
:104670007C7B7B7A7978777675747371706E6D6BED
:104680006968666462605D5B595754524F4D4A4891
:104690004542403D3A3735322F2D2A272522201D0D
:1046A0001B19161412100E0C0B0908060504030240
:1046B00001010000000000010102030305060709D3
:1046C0000B0D0F111416191C1F2225282C303337FF
:1046D0003B3F43484C51555A5E63686C71767B7F13
:1046E0008386898C8F9295989B9EA2A5A7AAADB030
:1046F000B3B6B9BCBEC1C4C6C9CBCED0D3D5D7DA48
:10470000DCDEE0E2E4E6E8EAEBEDEEF0F1F3F4F50E
:10471000F6F8F9FAFAFBFCFDFDFEFEFEFFFFFFFFD7
:10472000FFFFFFFEFEFEFDFDFCFBFAFAF9F8F6F5D1
:10473000F4F3F1F0EEEDEBEAE8E6E4E2E0DEDCDAF9
:10474000D7D5D3D0CECBC9C6C4C1BEBCB9B6B3B021
:10475000ADAAA7A5A29E9B9895928F8C89868380EF
:104760007C797673706D6A6764615D5A5855524FF3
:104770004C494643413E3B393634312F2C2A2825BB
:1047800023211F1D1B1917151412110F0E0C0B0AD4
:1047900009070605050403020201010100000000EB
:1047A0000000000101010202030405050607090AD1
:1047B0000B0C0E0F1112141517191B1D1F21232589
:1047C000282A2C2F313436393B3E414346494C4F41
:1047D0005255585A5D6164676A6D707376797C7F53
:1047E0008386898C8F9295989B9EA2A5A7AAADB02F
:1047F000B3B6B9BCBEC1C4C6C9CBCED0D3D5D7DA47
:10480000DCDEE0E2E4E6E8EAEBEDEEF0F1F3F4F50D
:10481000F6F8F9FAFAFBFCFDFDFEFEFEFFFFFFFFD6
:10482000FFFFFFFEFEFEFDFDFCFBFAFAF9F8F6F5D0
:10483000F4F3F1F0EEEDEBEAE8E6E4E2E0DEDCDAF8
:10484000D7D5D3D0CECBC9C6C4C1BEBCB9B6B3B020
:10485000ADAAA7A5A29E9B9895928F8C89868380EE
:104860007C797673706D6A6764615D5A5855524FF2
:104870004C494643413E3B393634312F2C2A2825BA
:1048800023211F1D1B1917151412110F0E0C0B0AD3
:1048900009070605050403020201010100000000EA
:1048A0000000000101010202030405050607090AD0
:1048B0000B0C0E0F1112141517191B1D1F21232588
:1048C000282A2C2F313436393B3E414346494C4F40
:1048D0005255585A5D6164676A6D707376797C7F52
:1048E000828486888A8C8E90929496989A9C9EA0B8
:1048F000A2A4A6A8AAACAEB0B2B4B6B8BABCBEC0A8
:10490000C2C4C6C8CACCCED0D2D4D6D8DADCDEE097
:10491000E2E4E6E8EAECEEF0F2F4F6F8FAFCFEFF88
:10492000FEFCFAF8F6F4F2F0EEECEAE8E6E4E2E097
:10493000DEDCDAD8D6D4D2D0CECCCAC8C6C4C2C087
:10494000BEBCBAB8B6B4B2B0AEACAAA8A6A4A2A077
:104950009E9C9A98969492908E8C8A888684828067
:104960007D7B79777573716F6D6B69676563615F67
:104970005D5B59575553514F4D4B49474543413F57
:104980003D3B39373533312F2D2B29272523211F47
:104990001D1B19171513110F0D0B09070503010036
:1049A00001030507090B0D0F11131517191B1D1F07
:1049B00021232527292B2D2F31333537393B3D3FF7
:1049C00041434547494B4D4F51535557595B5D5FE7
:1049D00061636567696B6D6F71737577797B7D80D6
:1049E000828486888A8C8E90929496989A9C9EA0B7
:1049F000A2A4A6A8AAACAEB0B2B4B6B8BABCBEC0A7
:104A0000C2C4C6C8CACCCED0D2D4D6D8DADCDEE096
:104A1000E2E4E6E8EAECEEF0F2F4F6F8FAFCFEFF87
:104A2000FEFCFAF8F6F4F2F0EEECEAE8E6E4E2E096
:104A3000DEDCDAD8D6D4D2D0CECCCAC8C6C4C2C086
:104A4000BEBCBAB8B6B4B2B0AEACAAA8A6A4A2A076
:104A50009E9C9A98969492908E8C8A888684828066
:104A60007D7B79777573716F6D6B69676563615F66
:104A70005D5B59575553514F4D4B49474543413F56
:104A80003D3B39373533312F2D2B29272523211F46
:104A90001D1B19171513110F0D0B09070503010035
:104AA00001030507090B0D0F11131517191B1D1F06
:104AB00021232527292B2D2F31333537393B3D3FF6
:104AC00041434547494B4D4F51535557595B5D5FE6
:104AD00061636567696B6D6F71737577797B7D80D5
:104AE000828486888A8C8E90929496989A9C9EA0B6
:104AF000A2A4A6A8AAACAEB0B2B4B6B8BABCBEC0A6
:104B0000C2C4C6C8CACCCED0D2D4D6D8DADCDEE095
:104B1000E2E4E6E8EAECEEF0F2F4F6F8FAFCFEFF86
:104B2000FEFCFAF8F6F4F2F0EEECEAE8E6E4E2E095
:104B3000DEDCDAD8D6D4D2D0CECCCAC8C6C4C2C085
:104B4000BEBCBAB8B6B4B2B0AEACAAA8A6A4A2A075
:104B50009E9C9A98969492908E8C8A888684827F66
:104B60007D7B79777573716F6D6B69676563615F65
:104B70005D5B59575553514F4D4B49474543413F55
:104B80003D3B39373533312F2D2B29272523211F45
:104B90001D1B19171513110F0D0B09070503010034
:104BA00001030507090B0D0F11131517191B1D1F05
:104BB00021232527292B2D2F31333537393B3D3FF5
:104BC00041434547494B4D4F51535557595B5D5FE5
:104BD00061636567696B6D6F71737577797B7D7FD5
:104BE000828486888A8C8E90929496989A9C9EA0B5
:104BF000A2A4A6A8AAACAEB0B2B4B6B8BABCBEC0A5
:104C0000C2C4C6C8CACCCED0D2D4D6D8DADCDEE094
:104C1000E2E4E6E8EAECEEF0F2F4F6F8FAFCFEFF85
:104C2000FEFCFAF8F6F4F2F0EEECEAE8E6E4E2E094
:104C3000DEDCDAD8D6D4D2D0CECCCAC8C6C4C2C084
:104C4000BEBCBAB8B6B4B2B0AEACAAA8A6A4A2A074
:104C50009E9C9A98969492908E8C8A888684828064
:104C60007D7B79777573716F6D6B69676563615F64
:104C70005D5B59575553514F4D4B49474543413F54
:104C80003D3B39373533312F2D2B29272523211F44
:104C90001D1B19171513110F0D0B09070503010033
:104CA00001030507090B0D0F11131517191B1D1F04
:104CB00021232527292B2D2F31333537393B3D3FF4
:104CC00041434547494B4D4F51535557595B5D5FE4
:104CD00061636567696B6D6F71737577797B7D80D3
:104CE000828486888A8C8E90929496989A9C9EA0B4
:104CF000A2A4A6A8AAACAEB0B2B4B6B8BABCBEC0A4
:104D0000C2C4C6C8CACCCED0D2D4D6D8DADCDEE093
:104D1000E2E4E6E8EAECEEF0F2F4F6F8FAFCFEFF84
:104D2000FEFCFAF8F6F4F2F0EEECEAE8E6E4E2E093
:104D3000DEDCDAD8D6D4D2D0CECCCAC8C6C4C2C083
:104D4000BEBCBAB8B6B4B2B0AEACAAA8A6A4A2A073
:104D50009E9C9A98969492908E8C8A888684828063
:104D60007D7B79777573716F6D6B69676563615F63
:104D70005D5B59575553514F4D4B49474543413F53
:104D80003D3B39373533312F2D2B29272523211F43
:104D90001D1B19171513110F0D0B09070503010032
:104DA00001030507090B0D0F11131517191B1D1F03
:104DB00021232527292B2D2F31333537393B3D3FF3
:104DC00041434547494B4D4F51535557595B5D5FE3
:104DD00061636567696B6D6F71737577797B7D80D2
:104DE000828486888A8C8E90929496989A9C9EA0B3
:104DF000A2A4A6A8AAACAEB0B2B4B6B8BABCBEC0A3
:104E0000C2C4C6C8CACCCED0D2D4D6D8DADCDEE092
:104E1000E2E4E6E8EAECEEF0F2F4F6F8FAFCFEFF83
:104E2000FEFCFAF8F6F4F2F0EEECEAE8E6E4E2E092
:104E3000DEDCDAD8D6D4D2D0CECCCAC8C6C4C2C082
:104E4000BEBCBAB8B6B4B2B0AEACAAA8A6A4A2A072
:104E50009E9C9A98969492908E8C8A888684828062
:104E60007D7B79777573716F6D6B69676563615F62
:104E70005D5B59575553514F4D4B49474543413F52
:104E80003D3B39373533312F2D2B29272523211F42
:104E90001D1B19171513110F0D0B09070503010031
:104EA00001030507090B0D0F11131517191B1D1F02
:104EB00021232527292B2D2F31333537393B3D3FF2
:104EC00041434547494B4D4F51535557595B5D5FE2
:104ED00061636567696B6D6F71737577797B7D80D1
:104EE000828486888A8C8E90929496989A9C9EA0B2
:104EF000A2A4A6A8AAACAEB0B2B4B6B8BABCBEC0A2
:104F0000C2C4C6C8CACCCED0D2D4D6D8DADCDEE091
:104F1000E2E4E6E8EAECEEF0F2F4F6F8FAFCFEFF82
:104F2000FEFCFAF8F6F4F2F0EEECEAE8E6E4E2E091
:104F3000DEDCDAD8D6D4D2D0CECCCAC8C6C4C2C081
:104F4000BEBCBAB8B6B4B2B0AEACAAA8A6A4A2A071
:104F50009E9C9A98969492908E8C8A888684828061
:104F60007D7B79777573716F6D6B69676563615F61
:104F70005D5B59575553514F4D4B49474543413F51
:104F80003D3B39373533312F2D2B29272523211F41
:104F90001D1B19171513110F0D0B09070503010030
:104FA00001030507090B0D0F11131517191B1D1F01
:104FB00021232527292B2D2F31333537393B3D3FF1
:104FC00041434547494B4D4F51535557595B5D5FE1
:104FD00061636567696B6D6F71737577797B7D80D0
:104FE000828486888A8C8E90929496989A9C9EA0B1
:104FF000A2A4A6A8AAACAEB0B2B4B6B8BABCBEC0A1
:10500000C2C4C6C8CACCCED0D2D4D6D8DADCDEE090
:10501000E2E4E6E8EAECEEF0F2F4F6F8FAFCFEFF81
:10502000FEFCFAF8F6F4F2F0EEECEAE8E6E4E2E090
:10503000DEDCDAD8D6D4D2D0CECCCAC8C6C4C2C080
:10504000BEBCBAB8B6B4B2B0AEACAAA8A6A4A2A070
:105050009E9C9A98969492908E8C8A888684828060
:105060007D7B79777573716F6D6B69676563615F60
:105070005D5B59575553514F4D4B49474543413F50
:105080003D3B39373533312F2D2B29272523211F40
:105090001D1B19171513110F0D0B0907050301002F
:1050A00001030507090B0D0F11131517191B1D1F00
:1050B00021232527292B2D2F31333537393B3D3FF0
:1050C00041434547494B4D4F51535557595B5D5FE0
:1050D00061636567696B6D6F71737577797B7D80CF
:1050E000828486888A8C8E90929496989A9C9EA0B0
:1050F000A2A4A6A8AAACAEB0B2B4B6B8BABCBEC0A0
:10510000C2C4C6C8CACCCED0D2D4D6D8DADCDEE08F
:10511000E2E4E6E8EAECEEF0F2F4F6F8FAFCFEFF80
:10512000FEFCFAF8F6F4F2F0EEECEAE8E6E4E2E08F
:10513000DEDCDAD8D6D4D2D0CECCCAC8C6C4C2C07F
:10514000BEBCBAB8B6B4B2B0AEACAAA8A6A4A2A06F
:105150009E9C9A98969492908E8C8A88868482805F
:105160007D7B79777573716F6D6B69676563615F5F
:105170005D5B59575553514F4D4B49474543413F4F
:105180003D3B39373533312F2D2B29272523211F3F
:105190001D1B19171513110F0D0B0907050301002E
:1051A00001030507090B0D0F11131517191B1D1FFF
:1051B00021232527292B2D2F31333537393B3D3FEF
:1051C00041434547494B4D4F51535557595B5D5FDF
:1051D00061636567696B6D6F71737577797B7D80CE
:1051E000828486888A8C8E90929496989A9C9EA0AF
:1051F000A2A4A6A8AAACAEB0B2B4B6B8BABCBEC09F
:10520000C2C4C6C8CACCCED0D2D4D6D8DADCDEE08E
:10521000E2E4E6E8EAECEEF0F2F4F6F8FAFCFEFF7F
:10522000FEFCFAF8F6F4F2F0EEECEAE8E6E4E2E08E
:10523000DEDCDAD8D6D4D2D0CECCCAC8C6C4C2C07E
:10524000BEBCBAB8B6B4B2B0AEACAAA8A6A4A2A06E
:105250009E9C9A98969492908E8C8A88868482805E
:105260007D7B79777573716F6D6B69676563615F5E
:105270005D5B59575553514F4D4B49474543413F4E
:105280003D3B39373533312F2D2B29272523211F3E
:105290001D1B19171513110F0D0B0907050301002D
:1052A00001030507090B0D0F11131517191B1D1FFE
:1052B00021232527292B2D2F31333537393B3D3FEE
:1052C00041434547494B4D4F51535557595B5D5FDE
:1052D00061636567696B6D6F71737577797B7D80CD
:1052E000828486888A8C8E90929496989A9C9EA0AE
:1052F000A2A4A6A8AAACAEB0B2B4B6B8BABCBEC09E
:10530000C2C4C6C8CACCCED0D2D4D6D8DADCDEE08D
:10531000E2E4E6E8EAECEEF0F2F4F6F8FAFCFEFF7E
:10532000FEFCFAF8F6F4F2F0EEECEAE8E6E4E2E08D
:10533000DEDCDAD8D6D4D2D0CECCCAC8C6C4C2C07D
:10534000BEBCBAB8B6B4B2B0AEACAAA8A6A4A2A06D
:105350009E9C9A98969492908E8C8A88868482805D
:105360007D7B79777573716F6D6B69676563615F5D
:105370005D5B59575553514F4D4B49474543413F4D
:105380003D3B39373533312F2D2B29272523211F3D
:105390001D1B19171513110F0D0B0907050301002C
:1053A00001030507090B0D0F11131517191B1D1FFD
:1053B00021232527292B2D2F31333537393B3D3FED
:1053C00041434547494B4D4F51535557595B5D5FDD
:1053D00061636567696B6D6F71737577797B7D80CC
:1053E000828486888A8C8E90929496989A9C9EA0AD
:1053F000A2A4A6A8AAACAEB0B2B4B6B8BABCBEC09D
:10540000C2C4C6C8CACCCED0D2D4D6D8DADCDEE08C
:10541000E2E4E6E8EAECEEF0F2F4F6F8FAFCFEFF7D
:10542000FEFCFAF8F6F4F2F0EEECEAE8E6E4E2E08C
:10543000DEDCDAD8D6D4D2D0CECCCAC8C6C4C2C07C
:10544000BEBCBAB8B6B4B2B0AEACAAA8A6A4A2A06C
:105450009E9C9A98969492908E8C8A88868482805C
:105460007D7B79777573716F6D6B69676563615F5C
:105470005D5B59575553514F4D4B49474543413F4C
:105480003D3B39373533312F2D2B29272523211F3C
:105490001D1B19171513110F0D0B0907050301002B
:1054A00001030507090B0D0F11131517191B1D1FFC
:1054B00021232527292B2D2F31333537393B3D3FEC
:1054C00041434547494B4D4F51535557595B5D5FDC
:1054D00061636567696B6D6F71737577797B7D80CB
:1054E000828486888A8C8E90929496989A9C9EA0AC
:1054F000A2A4A6A8AAACAEB0B2B4B6B8BABCBEC09C
:10550000C2C4C6C8CACCCED0D2D4D6D8DADCDEE08B
:10551000E2E4E6E8EAECEEF0F2F4F6F8FAFCFEFF7C
:10552000FEFCFAF8F6F4F2F0EEECEAE8E6E4E2E08B
:10553000DEDCDAD8D6D4D2D0CECCCAC8C6C4C2C07B
:10554000BEBCBAB8B6B4B2B0AEACAAA8A6A4A2A06B
:105550009E9C9A98969492908E8C8A88868482805B
:105560007D7B79777573716F6D6B69676563615F5B
:105570005D5B59575553514F4D4B49474543413F4B
:105580003D3B39373533312F2D2B29272523211F3B
:105590001D1B19171513110F0D0B0907050301002A
:1055A00001030507090B0D0F11131517191B1D1FFB
:1055B00021232527292B2D2F31333537393B3D3FEB
:1055C00041434547494B4D4F51535557595B5D5FDB
:1055D00061636567696B6D6F71737577797B7D80CA
:1055E000828486888A8C8E90929496989A9C9EA0AB
:1055F000A2A4A6A8AAACAEB0B2B4B6B8BABCBEC09B
:10560000C2C4C6C8CACCCED0D2D4D6D8DADCDEE08A
:10561000E2E4E6E8EAECEEF0F2F4F6F8FAFCFEFF7B
:10562000FEFCFAF8F6F4F2F0EEECEAE8E6E4E2E08A
:10563000DEDCDAD8D6D4D2D0CECCCAC8C6C4C2C07A
:10564000BEBCBAB8B6B4B2B0AEACAAA8A6A4A2A06A
:105650009E9C9A98969492908E8C8A88868482805A
:105660007D7B79777573716F6D6B69676563615F5A
:105670005D5B59575553514F4D4B49474543413F4A
:105680003D3B39373533312F2D2B29272523211F3A
:105690001D1B19171513110F0D0B09070503010029
:1056A00001030507090B0D0F11131517191B1D1FFA
:1056B00021232527292B2D2F31333537393B3D3FEA
:1056C00041434547494B4D4F51535557595B5D5FDA
:1056D00061636567696B6D6F71737577797B7D80C9
:1056E000828486888A8C8E90929496989A9C9EA0AA
:1056F000A2A4A6A8AAACAEB0B2B4B6B8BABCBEC09A
:10570000C2C4C6C8CACCCED0D2D4D6D8DADCDEE089
:10571000E2E4E6E8EAECEEF0F2F4F6F8FAFCFEFF7A
:10572000FEFCFAF8F6F4F2F0EEECEAE8E6E4E2E089
:10573000DEDCDAD8D6D4D2D0CECCCAC8C6C4C2C079
:10574000BEBCBAB8B6B4B2B0AEACAAA8A6A4A2A069
:105750009E9C9A98969492908E8C8A888684828059
:105760007D7B79777573716F6D6B69676563615F59
:105770005D5B59575553514F4D4B49474543413F49
:105780003D3B39373533312F2D2B29272523211F39
:105790001D1B19171513110F0D0B09070503010028
:1057A00001030507090B0D0F11131517191B1D1FF9
:1057B00021232527292B2D2F31333537393B3D3FE9
:1057C00041434547494B4D4F51535557595B5D5FD9
:1057D00061636567696B6D6F71737577797B7D80C8
:1057E000818486888A8C8E90929496989A9C9EA0AA
:1057F000A2A4A6A8AAACAEB0B2B4B6B8BABCBEC099
:10580000C2C4C6C8CACCCED0D2D4D6D8DADCDEE088
:10581000E2E4E6E8EAECEEF0F2F4F6F8FAFCFEFF79
:10582000FEFCFAF8F6F4F2F0EEECEAE8E6E4E2E088
:10583000DEDCDAD8D6D4D2D0CECCCAC8C6C4C2C078
:10584000BEBCBAB8B6B4B2B0AEACAAA8A6A4A2A068
:105850009E9C9A98969492908E8C8A888684818059
:105860007E7B79777573716F6D6B69676563615F57
:105870005D5B59575553514F4D4B49474543413F48
:105880003D3B39373533312F2D2B29272523211F38
:105890001D1B19171513110F0D0B09070503010027
:1058A00001030507090B0D0F11131517191B1D1FF8
:1058B00021232527292B2D2F31333537393B3D3FE8
:1058C00041434547494B4D4F51535557595B5D5FD8
:1058D00061636567696B6D6F71737577797B7E80C6
:1058E000828486888A8C8E90929496989A9C9EA0A8
:1058F000A2A4A6A8AAACAEB0B2B4B6B8BABCBEC098
:10590000C2C4C6C8CACCCED0D2D4D6D8DADCDEE087
:10591000E2E4E6E8EAECEEF0F2F4F6F8FBFDFEFF76
:10592000FEFDFBF8F6F4F2F0EEECEAE8E6E4E2E085
:10593000DEDCDAD8D6D4D2D0CECCCAC8C6C4C2C077
:10594000BEBCBAB8B6B4B2B0AEACAAA8A6A4A2A067
:105950009E9C9A98969492908E8C8A888684828057
:105960007D7B79777573716F6D6B69676563615F57
:105970005D5B59575553514F4D4B49474543413F47
:105980003D3B39373533312F2D2B29272523211F37
:105990001D1B19171513110F0D0B09070402010028
:1059A00001020407090B0D0F11131517191B1D1FF9
:1059B00021232527292B2D2F31333537393B3D3FE7
:1059C00041434547494B4D4F51535557595B5D5FD7
:1059D00061636567696B6D6F71737577797B7D80C6
:1059E000828486888A8C8E90929496989A9C9EA0A7
:1059F000A2A4A6A8AAACAEB0B2B4B6B8BABCBEC097
:105A0000C2C4C6C8CACCCED0D2D4D6D8DADCDEE086
:105A1000E2E4E6E8EBEDEFF1F2F4F6F9FBFDFEFF70
:105A2000FEFDFBF9F6F4F2F1EFEDEBE8E6E4E2E07F
:105A3000DEDCDAD8D6D4D2D0CECCCAC8C6C4C2C076
:105A4000BEBCBAB8B6B4B2B0AEACAAA8A6A4A2A066
:105A50009E9C9A98969492908E8C8A888684828056
:105A60007D7B79777573716F6D6B69676563615F56
:105A70005D5B59575553514F4D4B49474543413F46
:105A80003D3B39373533312F2D2B29272523211F36
:105A90001D1B19171412100E0D0B0906040201002C
:105AA00001020406090B0D0E10121417191B1D1FFD
:105AB00021232527292B2D2F31333537393B3D3FE6
:105AC00041434547494B4D4F51535557595B5D5FD6
:105AD00061636567696B6D6F71737577797B7D80C5
